:020000040800F2
:1000000018090020290200086F2000082F1D000891
:100010006D2000082B05000885280008000000005E
:100020000000000000000000000000007320000835
:10003000E905000800000000712000087520000894
:10004000430200084302000843020008430200087C
:10005000430200084302000843020008430200086C
:10006000430200084302000843020008430200085C
:10007000430200084302000843020008430200084C
:10008000430200084302000843020008430200083C
:10009000430200084302000843020008430200082C
:1000A000430200082121000843020008430200081F
:1000B0002D210008392100084302000843020008EE
:1000C00043020008430200084302000843020008FC
:1000D000430200083D2800084302000843020008CC
:1000E00043020008430200084302000843020008DC
:1000F00043020008430200084302000843020008CC
:1001000043020008430200084302000843020008BB
:1001100043020008430200084302000843020008AB
:1001200043020008430200082D05000843020008AE
:100130004302000800000000000000004302000825
:10014000430200084302000843020008430200087B
:100150004302000843020008390500084302000872
:10016000430200084302000843020008430200085B
:1001700043020008430200080000000000000000E5
:10018000430200084302000800F002F800F03CF8C7
:100190000AA090E8000C82448344AAF10107DA45E2
:1001A00001D100F031F8AFF2090EBAE80F0013F0F8
:1001B000010F18BFFB1A43F001031847A82D0000D8
:1001C000C82D0000103A24BF78C878C1FAD8520769
:1001D00024BF30C830C144BF04680C6070470000C1
:1001E0000023002400250026103A28BF78C1FBD840
:1001F000520728BF30C148BF0B6070471FB502F0DF
:100200008CFE1FBD10B510BD00F05AF91146FFF766
:10021000F5FF02F0F7FD00F078F903B4FFF7F2FF05
:1002200003BC00F07BF900000948804709480047FB
:10023000FEE7FEE7FEE7FEE7FEE7FEE7FEE7FEE796
:10024000FEE7FEE704480549054A064B70470000F3
:100250001121000889010008180300201809002056
:10026000180500201805002053EA020C00F06980F0
:100270002DE9F04B4FF00006002B1FBFB3FA83F5BA
:1002800003FA05F424FA05F65E4012BF1643B2FAEB
:1002900082F502FA05F4C5F120051EBF22FA05FC1D
:1002A00044EA0C04203556EA044C4FEA144418BFC3
:1002B000641C4FF000084FF00009904271EB030CF2
:1002C00039D3002919BFB1FA81F701FA07F6B0FA5C
:1002D00080F700FA07F6C7F120071EBF20FA07FCD7
:1002E00046EA0C062037B6FBF4FCA7EB0507103FE7
:1002F00007F01F0BCBF120060CFA0BFB2CFA06F6CD
:1003000044BFB3460026202FA4BF5E464FF0000B2B
:100310005BEA060C08BF4FF0010B19EB0B09ABFBB6
:10032000027C48EB0608C01B06FB02CC0BFB03CC8F
:1003300071EB0C01C1E70B46024641464846BDE859
:10034000F08B13B54FF000004FF00001AFF30080C9
:10035000BDE81C407047032A40F2308010F0030CC7
:1003600000F0158011F8013BBCF1020F624498BF08
:1003700011F801CB00F8013B38BF11F8013BA2F1A5
:10038000040298BF00F801CB38BF00F8013B11F020
:10039000030300F05A80083AC0F0088051F8043B8B
:1003A000083A51F804CBA0E80810F5E7121D5CBF2D
:1003B00051F8043B40F8043BAFF30080D20724BF60
:1003C00011F8013B11F801CB48BF11F8012B24BFF4
:1003D00000F8013B00F801CB48BF00F8012B704743
:1003E0004FF0000200B5134694469646203922BFCE
:1003F000A0E80C50A0E80C50B1F12001BFF4F7AF19
:10040000090728BFA0E80C5048BF0CC05DF804EBFA
:10041000890028BF40F8042B08BF704748BF20F868
:10042000022B11F0804F18BF00F8012B7047704766
:100430007047704710B500F03BF8006810BD10B56C
:10044000044600F035F8046010BD10B5203AC0F045
:100450000B80B1E81850203AA0E81850B1E81850C5
:10046000A0E81850BFF4F5AF5FEA027C24BFB1E802
:100470001850A0E8185044BF18C918C0BDE8104073
:100480005FEA827C24BF51F8043B40F8043B08BF7C
:100490007047D20728BF31F8023B48BF11F8012B43
:1004A00028BF20F8023B48BF00F8012B704700002E
:1004B00000487047B402002000487047B402002092
:1004C0007546FFF7F9FFAE4605006946534620F032
:1004D0000700854618B020B5FFF7B4FEBDE8204000
:1004E0004FF000064FF000074FF000084FF0000BF0
:1004F00021F00701AC46ACE8C009ACE8C009ACE8A3
:10050000C009ACE8C0098D46704710B50446AFF38A
:1005100000802046BDE81040FFF77FBE014918204B
:10052000ABBEFEE7260002007047FEE7014800F080
:10053000B9B8000034010020014800F0B3B8000051
:100540009401002001681823CAB2103AB2FBF3F2FA
:10055000054B6FF30901032A9B5CC36500D9091D94
:100560008165084670470000242F000810B5014639
:1005700000208B698A6A4FF0C07453B1B3F5005FF5
:1005800015D072B1012A0CD0022A0AD0032A09D14F
:1005900004E01AB1012A06D0022A03D1C96AC901AE
:1005A00000D5012010BDC96AA142FAD010BD002AB1
:1005B000F7D0012AF2D0022AF3D0032AF3D010BDDB
:1005C00030B50468256825F48025256004686360DB
:1005D0008368402B036803D099600068C26030BD17
:1005E0009A600068C16030BD704772B6FEE72DE9C1
:1005F000F0410446876D00F0C9FA064694F83500CC
:100600000025022806D08020606584F8345001203F
:10061000BDE8F0812068016821F0160101602068C2
:10062000416921F080014161206C08B9A06C20B1C2
:100630002068016821F0080101602068016821F04C
:10064000010101600CE000F0A1FA801B052807D928
:1006500020206065032084F8350084F83450D7E703
:1006600020680068C007EED194F85C103F208840F5
:10067000B860012084F8350084F834500020C7E7C2
:1006800090F83510022903D0802141650120704780
:10069000052180F835100068016821F00101016032
:1006A000002070472DE9F84304464FF00009CDF8CB
:1006B000009063484FF41651A56D0068B0FBF1F748
:1006C0002E6894F85C10082000FA01F131420FD036
:1006D00021680A6852070BD50A6822F004020A60F2
:1006E00094F85C108840A860606D40F0010060657F
:1006F00094F85C104FF0010808FA01F0304208D07D
:1007000021684969090604D5A860606D40F00200BF
:10071000606594F85C1004208840304208D021685D
:100720000968890704D5A860606D40F00400606521
:1007300094F85C1010208840304218D02168096875
:10074000090714D5A86020680168490304D500682A
:10075000000308D5A16C07E00168C90503D401684E
:1007600021F008010160216C09B12046884794F806
:100770005C1020208840304231D021680968C906C9
:100780002DD5A86094F8350005282068016806D0AA
:10079000490347D5006800031DD4616C1CE021F0BB
:1007A000160101602068416921F080014161206CDF
:1007B00008B9A06C20B12068016821F0080101602F
:1007C00094F85C103F208840A86084F8358084F855
:1007D0003490216D1FE0E16B09B120468847606DC0
:1007E00000282BD0606DC00714D0052084F8350098
:1007F0002068016821F0010101600098401C009010
:10080000B84203D820680068C007F6D184F8358064
:1008100084F83490E16C002910D001B02046BDE886
:10082000F04308470168C905D5D4016821F01001DB
:10083000016084F8358084F83490CCE7BDE8F88313
:10084000100000202DE9F041044600F09FF9064613
:100850005CB1022084F83500002584F8345020680B
:10086000016821F0010101600DE00120BDE8F08187
:1008700000F08CF9801B052805D920206065032035
:1008800084F83500F2E720680068C007F0D12268DC
:10089000116820480140D4E901031843D4E9033624
:1008A0003343184363691843A3691843E369184342
:1008B000236A18430843616A042903D1D4E90B135E
:1008C00019430843106020684069666A20F00701F8
:1008D00030460E43012704280CD1A06A0643E06A83
:1008E00040B12046FFF742FE20B14020606584F809
:1008F0003570BAE7206846612046FFF723FE94F87A
:100900005C203F2191408160656584F8357000204E
:10091000ACE700003F8010F02DE9F0410446866D01
:1009200090F83400002501280DD0012084F834000F
:1009300094F835700020012F07D084F83400022588
:100940002846BDE8F0810220FBE7022784F83570D5
:1009500060652046FFF734FE94F85C103F20884025
:10096000B0602068016841F016010160206C20B180
:100970002068016841F0080101602068016841F0C9
:1009800001010160DCE700002DE9F84FDFF8BCA1B0
:100990000022012503264FF00F090AF1040BAAF1EA
:1009A000040E00BF0B6805FA02F42340A34270D185
:1009B0000F7907F00307012F01D0022F16D18768A6
:1009C0004FEA420806FA08FC27EA0C07D1F80CC0E7
:1009D0000CFA08FC4CEA070CC0F808C04768A743AB
:1009E0000C79C4F3001494403C4344600C79E44314
:1009F000A4070AD0C4684FEA420C06FA0CF7BC43BD
:100A00008F6807FA0CF72743C7600C7904F00304DA
:100A1000022C12D1D40800EB840CDCF820405707DC
:100A2000FF0E09FA07F824EA0804D1F8108008FA42
:100A300007F848EA0408CCF8208004684FEA420C22
:100A400006FA0CF7BC430F7907F0030707FA0CF717
:100A5000274307604C6814F4403F70D03C4C276833
:100A600047F480472760246822F0030704F4804499
:100A70000094384C07EB040CDCF8084897074FEA61
:100A8000177809FA08F7BC43334FB84202D1002760
:100A900024E054E0314FB84201D101271EE0304F2D
:100AA000B84201D1022719E02E4FB84201D10327E5
:100AB00014E02D4FB84201D104270FE02B4FB8426C
:100AC00001D105270AE02A4FB84201D1062705E0E7
:100AD000284FB84201D1072700E0082707FA08F796
:100AE0002743CCF80878DAF800405746D1F804C01C
:100AF0009C435FEACC2C00D51C433C60DBF80040F3
:100B00005F46D1F804C09C435FEA8C2C00D51C439F
:100B10003C60DEF800407746D1F804C09C435FEAB1
:100B20008C3C00D51C433C60084F083F3C68D1F822
:100B300004C09C435FEACC3C00D51C433C60521C83
:100B4000102AFFF42FAFBDE8F88F0000083C0140E9
:100B500044380240003001400000024000040240DE
:100B600000080240000C0240001002400014024045
:100B700000180240001C02400069084000D001201B
:100B800070470AB1816170470904FBE7014880683A
:100B90007047000004000020024881680278114478
:100BA00081607047040000200B4810B5016841F4D3
:100BB00000710160016841F480610160016841F4E5
:100BC00080710160032000F095F80F2000F006F816
:100BD00000F04AF8002010BD003C024030B5054648
:100BE0001C4887B00024016841F0010101600068E1
:100BF00006A900F00100009001A800F027F900F01C
:100C000055F915494000B0FBF1F11548134A491E4A
:100C1000026040F2E732C0E90324C0E901148461B4
:100C200000F086FB040012D10D4800F0DFFB040049
:100C30000DD1192000F030F8102D07D200222946DE
:100C4000192000F037F80748056000E0012407B0DC
:100C5000204630BD4438024040420F0000000140B1
:100C6000F4010020080000200A4808B5016841F49A
:100C700080410160006800F4804000900548001F3A
:100C8000016841F080510160006800F080500090E0
:100C900008BD000044380240002809DB00F01F02B4
:100CA000012191404009800000F1E020C0F80011CE
:100CB00070470000F0B40E4B1B680C46C3F30223D0
:100CC000C3F10705042D00D90425191D072901D2F8
:100CD000002300E0DB1E012606FA05F1491E214033
:100CE00099409E40761E16403143F0BC01F0DEBDB7
:100CF0000CED00E0064900F0070208684FF6FF031C
:100D0000184040EA0220034A104308607047000080
:100D10000CED00E00000FA052DE9F0470E46050055
:100D200065D0DFF81481D8F80000F7B200F00700B2
:100D3000B04207D288F80070D8F8000000F0070031
:100D4000B04254D128683D4C810712D5400703D5E5
:100D5000206840F4E05020602878000703D5206820
:100D600040F4604020602068A96820F0F00008434B
:100D700020602878C0072DD03049686808390128DC
:100D800012D0022813D0032811D00968890700293E
:100D90002DDA216821F0030101432160FFF7F6FEFF
:100DA000814641F2883A0EE009688903EFE7096855
:100DB0008901ECE7FFF7EAFEA0EB0901514502D9F2
:100DC0000320BDE8F0872068696800F00C00B0EBF4
:100DD000810FEFD1D8F80010404601F00701B14271
:100DE00007D90770006800F00700B04201D0012069
:100DF000E7E72878400705D52068E96820F4E05047
:100E0000084320602878000706D52068296920F467
:100E1000604040EAC100206000F058F82168084AAC
:100E2000C1F30311515CC8400649086006480068D8
:100E3000FFF7D4FE0020C4E7003C0240083802401F
:100E40002C2F000810000020080000200F22026054
:100E50000C4A136803F003034360136803F0F003C4
:100E60008360136803F4E053C36012684FF4E053E7
:100E700003EAD20202610448006800F0070008603B
:100E80007047000008380240003C02400448054911
:100E900000680968044AC1F38221515CC840704768
:100EA00010000020083802403C2F00080448054983
:100EB00000680968044AC1F34231515CC840704778
:100EC00010000020083802403C2F0008154810B5DB
:100ED000006810F00C02144813D01449042A0FD0F3
:100EE000082A0ED10F4C241F2268236802F03F020B
:100EF0005B0207D52068C0F38810A0FB010106E063
:100F0000084610BD2168C1F38811A1FB0001002330
:100F1000FFF7AAF92168C1F30141491C4900B0FB60
:100F2000F1F010BD083802400024F40040787D0143
:100F30002DE9F84F04006ED02078DFF84C93C007FD
:100F4000A9F104054AD009F104000168C1F3810147
:100F5000012908D00068C0F3810002280AD1D9F81D
:100F60000000400206D52868800337D56068002855
:100F7000E1D033E06068B0F5803F10D0B0F5A02F2D
:100F8000286810D020F480302860286820F4802061
:100F900028606068A8B1FFF7F9FD06460DE02868F3
:100FA00040F48030F4E740F480202860F7E700BF89
:100FB000FFF7ECFD801B642873D828688003F7D501
:100FC0000CE0FFF7E3FD064605E000BFFFF7DEFD9E
:100FD000801B6428F0D828688003F7D42078DFF8D5
:100FE000AC8280074FF0000A3ED5A748001D01687B
:100FF00011F00C0F08D00068C0F3810002280BD15B
:10100000D9F80000400207D42868800716D5E068A8
:10101000012800D112E033E1E068B8B10120C8F83E
:101020000000FFF7B3FD064605E000BFFFF7AEFD89
:10103000801B0228C0D828688007F7D52868216956
:1010400020F0F80040EAC10028600DE0C8F800A0D8
:10105000FFF79CFD064604E0FFF798FD801B022881
:101060001FD828688007F7D42078000722D5864F3C
:1010700087486169703771B101210160FFF786FD12
:10108000064604E0FFF782FD801B022809D8386875
:101090008007F7D50EE0C0F800A0FFF777FD064601
:1010A00005E082E0FFF772FD801B02287DD83868DA
:1010B0008007F7D42078400768D5DFF8CCB1002747
:1010C0000BF13C0BDBF80000C0000BD4DBF8001088
:1010D00041F08051CBF80010DBF80000012700F050
:1010E000805000906B4E3068C00510D4306840F4DA
:1010F00080703060FFF74AFD009005E0FFF746FD85
:101100000099401A022850D83068C005F6D55E4EC6
:10111000A0686C3601280FD00528306810D020F068
:1011200001003060306820F004003060A068B8B181
:10113000FFF72CFD00900FE0306840F00100F4E76D
:1011400040F004003060F7E7FFF720FD0099411AF6
:1011500041F28830814266D830688007F4D50EE0CD
:10116000FFF714FD009007E0FFF710FD0099411A0A
:1011700041F28830814256D830688007F4D42FB1CC
:10118000DBF8001021F08051CBF80010A069C8B343
:101190003D49091D0968C1F3810102294AD002288D
:1011A000504607D0C8F8600000E03CE0FFF7EEFCD6
:1011B00004463BE04746C8F86000FFF7E7FC0646F8
:1011C00005E000BFFFF7E2FC801B02282BD828684F
:1011D0008001F7D4D4E907010843A16A2E4A4908DF
:1011E00002EB0141626A41EA8211084394F82C1033
:1011F00040EA0161C9F8001001203866FFF7C6FC1B
:10120000044606E03EE000BFFFF7C0FC001B0228DA
:1012100009D828688001F7D534E000BFFFF7B6FC95
:10122000001B022802D90320BDE8F88F286880013E
:10123000F4D427E00128F7D0D9F80000E26900F4DF
:10124000800191421CD1226A00F03F01914217D1E6
:1012500047F6C071626A0140B1EB821F10D1A26AE9
:101260004FF0FF3300F4403103EB5202B1EB024F79
:1012700006D194F82C1000F07060B0EB016F01D033
:101280000120D1E70020CFE70438024000004742A8
:10129000800E4742007000400000FFFF704770471B
:1012A00070B590F83C20012A32D0012480F83C40EF
:1012B000022280F83D2003685A689D6822F070067B
:1012C0000A6832435A60134B02689A4214D0B2F152
:1012D000804F11D0104B9A420ED0104B9A420BD037
:1012E0000F4B9A4208D00F4B9A4205D00E4B9A42B0
:1012F00002D00E4B9A4204D1496825F0800319436D
:10130000916080F83D40002180F83C10084670BD97
:10131000022070BD000001400004004000080040B1
:10132000000C004000040140004001400018004053
:1013300010B5040003D094F83D0010B107E001207F
:1013400010BD002084F83C00204600F01FF8022069
:1013500084F83D00211D206800F0F4FE012084F88F
:10136000460084F83E0084F83F0084F8400084F88A
:10137000410084F8420084F8430084F8440084F873
:10138000450084F83D00002010BD000008B501684C
:101390001448B1F1804F14D0134A914220D1016812
:1013A00041F0020101600068002200F0020000909C
:1013B00005211D20FFF77EFC1D20BDE80840FFF73A
:1013C0006BBC016841F0010101600068002200F07F
:1013D0000100009005211C20FFF76CFC1C20ECE7AD
:1013E00008BD0000403802400004004090F83D1065
:1013F000012901D001207047022180F83D100168C9
:10140000CA6842F00102CA6000681149884214D0DB
:10141000B0F1804F11D00F4988420ED00E4988425A
:101420000BD00E49884208D00D49884205D00D499D
:10143000884202D00C49884204D1816801F007013A
:10144000062903D0016841F00101016000207047C6
:10145000000001400004004000080040000C004073
:1014600000040140004001400018004070B50446EF
:1014700090F83C000025012817D0012684F83C6034
:10148000022084F83D002068826822F0770222F46E
:101490007F4282600868502838D00DDC20284FD069
:1014A00005DC90B3102811D14AE0022070BD30282D
:1014B00046D040280AD13BE060282FD070280DD0BC
:1014C000B0F5805F03D0B0F5005F12D0012584F83D
:1014D0003D60002084F83C00284670BDCB68D1E90F
:1014E0000121206800F096FE2068816841F07701B4
:1014F00009E0CB68D1E90121206800F08BFE20686B
:10150000816841F480418160E1E719E0CA68496877
:10151000206800F053FF5021206806E0CA6849683F
:10152000206800F05CFF6021206800F07DFECEE7BF
:10153000CA684968206800F041FF40212068F4E74C
:10154000226801461046F0E770472DE9F041044655
:101550000068C66805694FF00007A90713D5B107F1
:1015600011D5F91E0161012020772068806980076C
:10157000204602D0FFF7E8FF04E000F0A7F820467D
:1015800000F039F92777680716D5700714D5216858
:101590006FF004000861022020772068806910F451
:1015A000407F204602D0FFF7CFFF04E000F08EF826
:1015B000204600F020F92777280715D5300713D5E6
:1015C00021686FF008000861042020772068C06956
:1015D0008007204602D0FFF7B7FF04E000F076F85E
:1015E000204600F008F92777E80616D5F00614D54E
:1015F00021686FF010000861082020772068C0691A
:1016000010F4407F204602D0FFF79EFF04E000F078
:101610005DF8204600F0EFF82777E80708D0F007DC
:1016200006D021686FF001000861204600F0E4F860
:10163000280608D5300606D521686FF080000861BD
:101640002046FFF72BFE680608D5700606D52168F0
:101650006FF040000861204600F0D8F8A8060AD5CF
:10166000B00608D521686FF0200008612046BDE86B
:10167000F041FFF714BEBDE8F081000010B586B060
:10168000044614216846FEF7ABFE0D4920688842E7
:1016900014D10C480021026842F001020260006887
:1016A00000F001000590C02000900220CDE901016A
:1016B000CDE9031069460448FFF766F906B010BD8E
:1016C000000400403038024000000240704770B50E
:1016D000044690F83C0000260D4601280FD001205A
:1016E00084F83C006AB1042A1DD0082A2FD00C2AA5
:1016F0003FD00126002084F83C00304670BD022017
:1017000070BD206800F098FD2068816941F00801F3
:1017100081612068816921F004018161206881690B
:101720002A69114311E0206800F0B6FD2068816944
:1017300041F4006181612068816921F480618161E7
:10174000206881692A6941EA02218161D2E7206823
:1017500000F0D8FD2068C16941F00801C16120682E
:10176000C16921F00401C1612068C1692A6911437E
:1017700011E0206800F0FAFD2068C16941F40061C1
:10178000C1612068C16921F48061C1612068C169BB
:101790002A6941EA0221C161ACE710B5040003D017
:1017A00094F83D0010B107E0012010BD002084F83E
:1017B0003C00204600F01EF8022084F83D00211D68
:1017C000206800F0BFFC012084F8460084F83E0049
:1017D00084F83F0084F8400084F8410084F8420017
:1017E00084F8430084F8440084F8450084F83D0000
:1017F000002010BD7047704700680349884201D13E
:10180000FFF7CAB97047000000000140704738B5C3
:10181000044690F84200202801D0022038BD51B182
:101820004AB10120206300206063204600F0B6FF2B
:10183000216B012901D0012038BD21680A6849685F
:10184000009121680C3151E8002F42F0100241E86C
:101850000023002BF5D138BD30B400680C4A90420B
:1018600010D10C4C2078FF280CD10B4B00201A789B
:1018700005E0255C012D00D10122401CC0B2884248
:10188000F7D31A7030BC642202490448FFF7BFBF87
:10189000001001403C02002014000020EC00002059
:1018A00070470000F8B5016804460868CA684B69CB
:1018B00010F00F0F4FF0000559D003F0010602F4AD
:1018C0009077374365D0C10705D0D10503D5616C4A
:1018D00041F001016164410705D5D90703D0616C6E
:1018E00041F002016164810705D5D90703D0616C1D
:1018F00041F004016164010707D502F02001314382
:1019000003D0616C41F008016164616C00293AD038
:10191000800604D5900602D5204600F04DFE2068D2
:101920004069616CC0F38010090700D460B32046A1
:1019300000F00DFE20684069400621D52068143073
:1019400050E8001F21F0400140E80012002AF5D1C4
:10195000E06BA8B173490165E06BFEF791FE0028CA
:1019600011D0E06B016D01B0BDE8F040084783067F
:101970000FD593060DD52046BDE8F84000F01CBEFB
:101980002046FFF78DFFF8BD2046FFF789FF65640D
:10199000F8BD266B2023012E7ED1C6067CD5D60647
:1019A0007AD508684868009048694FF002064006FA
:1019B00049D5E26B106840684FF480770004000C52
:1019C0003AD0A18D814237D9E085D069B8422DD077
:1019D00020680C3050E8001F21F4807140E80012AC
:1019E000002AF5D12068143050E8001F21F00101D1
:1019F00040E80012002AF5D12068143050E8001F9A
:101A000021F0400140E80012002AF5D184F842306C
:101A1000256320680C3050E8001F21F0100140E8D9
:101A20000012002AF5D1E06BFEF7E1FD6663A08DA0
:101A3000E18D401A81B233E0A18D8142A8D1D069F5
:101A4000B8422CD0F8BDA08DE18D401A81B2E08D56
:101A50000028F7D00029F5D020680C3050E8002F7E
:101A600022F4907240E80027002FF5D1206814304E
:101A700050E8002F22F0010240E80027002FF5D1A6
:101A800084F84230256320680C3050E8002F22F0A3
:101A9000100240E8002300E007E0002BF3D166636A
:101AA0002046BDE8F840FFF7D7BE05062BD5150642
:101AB00029D594F841002128C4D1A068B0F5805FF1
:101AC00001D12069B0B1206A411C216221680078EF
:101AD0004860E08C401E0004000CE084B2D1206815
:101AE000C16821F08001C1602068C16841F04001F7
:101AF000C160F8BD206A0088C0F308004860206A11
:101B0000801C2062E5E74006F3D55006F1D5CA688F
:101B1000204622F04002CA6084F8413000F0FAF812
:101B2000F8BD00000324000870B5040004D094F848
:101B30004100002510B106E0012070BD84F840503E
:101B4000204600F023F8242084F841002068C16872
:101B500021F40051C160204600F090FD2068016929
:101B600021F4904101612068416921F02A0141611D
:101B70002068C16841F40051C1606564202084F888
:101B8000410084F842006563002070BD2DE9F047F4
:101B900086B0064614216846FEF722FC36493068B6
:101BA000884266D135480024016841F01001016087
:101BB000006800F01000059030481438016841F0CA
:101BC0000101016000684FF0020900F0010005907A
:101BD0004FF40070CDE9000902AA03254FF0070871
:101BE000DFF89CA082E8300169465046FEF7CCFE43
:101BF00002AA012082E821014FF48067CDE9007933
:101C000069465046FEF7C0FE1F4D1E484FF0006863
:101C10002860C5E90184C5E903476C61AC61EC61EA
:101C20002C6228466C62FEF70DFE08B1FEF7DDFC63
:101C3000F563AE63144D134860357830E5E802086B
:101C4000402091C5104845F814496030AC61EC6102
:101C50002C626C62FEF7F6FD08B1FEF7C6FCB563B8
:101C6000002211462520AE63FFF724F82520FFF758
:101C700013F806B0BDE8F087001001404438024078
:101C80000000024040640240340100207047704769
:101C900070B5044690F84100202801D0022070BDA4
:101CA00001B3FAB12162A284E2840020606421239E
:101CB00084F84130A56B144BEB63A56B134B2B647D
:101CC000A56B134BEB64A36B186520681346A56BDB
:101CD000021D2846FEF720FE30B11020606420204F
:101CE00084F84100012070BD21686FF04000086059
:101CF0002068143050E8001F41F0800140E80012D5
:101D0000002AF5D1002070BD0325000845250008F4
:101D10001124000800680349884202D102490020CA
:101D20004870704700100140140000207047FEE723
:101D30002DE9F05F4E4CDFF83C81002620784FF013
:101D4000010A4FF4006748B100254FF0020901284D
:101D500010D0022823D0032819D14BE03946404641
:101D6000FEF70AFF012812D14148142184F800A08F
:101D7000083078E03E48083001F0C2F8002874D0FE
:101D800039464046FEF7F8FE012801D025706CE088
:101D9000374884F800900A211830656063E03448C1
:101DA000183001F0ADF838B160680A21401C60605D
:101DB0002F48183001F09CF8607880BB60684FF0C5
:101DC000030B642806D384F800B06560012684F80C
:101DD00001A045E0394645464046FEF7CDFE30B10C
:101DE00039462846FEF7C8FE012819D03DE084F8A0
:101DF00000B035E01E48103001F082F878B1BA46E4
:101E0000394647464046FEF7B7FE012801D16078C3
:101E100030B151463846FEF7AFFE20B10DE024E068
:101E200084F8009021E0607838B96068052804D310
:101E3000656025700226657017E051463846FEF74A
:101E40009BFE08B9607818B16078012807D00CE0D3
:101E50006068052809D265606570257000E06570CE
:101E600003481421103001F043F83046BDE8F09FDC
:101E70003C000020000802400D4808B5016841F40C
:101E8000800101600068002200F48000009011468B
:101E90003A20FEF70FFF3A20FEF7FEFE0022114621
:101EA0004620FEF707FFBDE808404620FEF7F4BED7
:101EB00030380240F0B587B014216846FEF790FA3A
:101EC00017480026016841F080010160016801F0B7
:101ED00080010591016841F0010101600068114F26
:101EE00000F001004FF498750590324629463846B7
:101EF000FEF747FE082000904FF488100224CDE939
:101F0000010469463846FEF73FFD01AA012000950D
:101F100082E8510069463846FEF736FD07B0F0BD4D
:101F2000303802400000024010B586B00024164848
:101F3000009401940294039404944FF0804105941A
:101F400001605321C0E9011440F2E731C0E90314F4
:101F50008461FFF7EDF908B1FEF747FB4FF48050BD
:101F6000009069460848FFF781FA08B1FEF73DFB8B
:101F7000049404A904480594FFF792F9002801D0BD
:101F8000FEF733FB06B010BD5C00002010B58EB02C
:101F900000240794089409940A940B941C21684621
:101FA0000C94FEF71DFA2248204901605321C0E934
:101FB000011440F2E731C0E903148461FFF7B8F976
:101FC00008B1FEF712FB4FF48050079007A918489C
:101FD000FFF74CFA08B1FEF708FB1548FFF7DDFBE9
:101FE00008B1FEF702FB0B940BA911480C94FFF704
:101FF00057F908B1FEF7F9FA6020CDE90004029420
:10200000002269460A480494FFF761FB08B1FEF715
:10201000ECFA042269460648FFF759FB08B1FEF7BF
:10202000E4FA0348FFF72AFB0EB010BD000400409D
:10203000A40000200C4810B50A4901604FF4E131BA
:102040004160002181600C22C160C0E904128161FD
:10205000C161FFF769FD002803D0BDE81040FEF71D
:10206000C4BA10BD00100140EC000020FEE7FEE7FE
:10207000704770477047000030B593B03021684614
:10208000FEF7AEF914210CA8FEF7AAF91E480025A8
:10209000016841F080510160006800F080501190AB
:1020A0001A48016841F4804101600068022400F48C
:1020B0008040119001200090000401908001CDE942
:1020C0000640192008904FF4A870CDE909040420B7
:1020D0000B906846FEF72CFF08B172B6FEE70CA91C
:1020E0000F2081E831004FF4A0500F904FF4805042
:1020F000109005210CA8FEF70FFE002801D072B643
:10210000FEE713B030BD00004038024000700040D0
:102110000248016841F470010160704788ED00E0F9
:102120000148FFF712BA0000F40100200148FFF750
:102130000CBA00005C0000200148FFF706BA00005E
:10214000A4000020F0B50268274B284D284E294FE7
:10215000294C4FF0804C984209D0604507D0A842E6
:1021600005D0B04203D0B84201D0A04204D122F041
:10217000700E4A6842EA0E0298421BD0604519D0A0
:10218000A84217D0B04215D0B84213D0A04211D007
:102190001A4DA8420ED01A4DA8420BD0194DA84294
:1021A00008D0194DA84205D0184DA84202D0184DAC
:1021B000A84203D122F44075CA682A434D6922F02F
:1021C00080022A438D68C5620D688562984201D0FD
:1021D000A04201D109690163016841F00401016075
:1021E000012141610260F0BD000001400004004097
:1021F00000080040000C0040000401400040014085
:10220000004401400048014000180040001C00400C
:102210000020004010B5846842EA032224F47F4481
:102220000A432243826010BD826822F070020A4392
:1022300042F0070181607047F0B5036A026A22F03C
:102240000102026242688469124E24F073050C6830
:102250002C4323F002058B682B430D4DA84201D07F
:10226000B04205D123F00807CB683B4323F00403B9
:10227000A84201D0B04205D14D6922F44072154305
:102280008A692A4342608461496841630362F0BD00
:102290000000014000040140F0B5026A036A23F027
:1022A00010030362436884690D6824F4E64444EA39
:1022B00005248D6822F0200242EA05120F4D104ECF
:1022C000A84201D0B04206D1CF6822F0800242EA93
:1022D000071222F04002A84201D0B04207D14D6956
:1022E00023F4406343EA85038D6943EA8503436031
:1022F0008461496881630262F0BD00000000014012
:1023000000040140F0B5026A036A23F4807303629B
:102310004368C46922F4007224F073050C68124EFD
:102320002C438D6842EA05220E4DA84201D0B042EE
:1023300006D1CF6822F4006242EA072222F48062CA
:10234000A84201D0B04207D14D6923F4405343EA7B
:1023500005138D6943EA05134360C4614968C1638D
:102360000262F0BD000001400004014030B5046A83
:10237000026A22F4805202624268C3690D6823F443
:10238000E64343EA05238D6824F4005444EA053407
:10239000084DA84202D0084DA84204D14D6922F44C
:1023A000804242EA85124260C36149680164046266
:1023B00030BD0000000001400004014010B5036A78
:1023C000046A24F001040462846924F0F00444EAFD
:1023D000021423F00A020A438461026210BD10B5A0
:1023E000036A046A24F010040462846923F0A003E1
:1023F00024F4704444EA023243EA0111826101622A
:1024000010BD10B5806B0021C185FFF749FA10BDE2
:1024100070B5846B2068406994F84110C0F3C01017
:102420000025212904D118B1E584204600F0B6F832
:102430002068406994F84210C0F38010222904D12A
:1024400018B1E585204600F082F8606C40F010007D
:1024500060642046FFF724FA70BD10B50146806B1A
:10246000096809684FF00002C9052ED4C2850168C9
:102470000C3151E8003F23F4807341E80034002C14
:10248000F5D10168143151E8003F23F0010341E820
:102490000034002CF5D10168143151E8003F23F0DD
:1024A000400341E80034002CF5D1202180F842108F
:1024B000016B012909D101680C3151E8003F23F07B
:1024C000100341E80034002CF5D14263016B01296F
:1024D00002D0FFF7DBFB10BD818DBDE81040FFF798
:1024E000BBB910B5806B01214163016B012902D09A
:1024F000FFF7CDFB10BD818DBDE810404908FFF707
:10250000ABB910B50146806B09680968C90516D4D6
:102510000021C1840168143151E8002F22F08002AB
:1025200041E80023002BF5D101680C3151E8002F60
:1025300042F0400241E80023002BF5D110BDFFF727
:10254000E9FB10BD10B5806BFFF7F0FB10BD016813
:102550000C3151E8002F22F4907241E80023002B47
:10256000F5D10168143151E8002F22F0010241E851
:102570000023002BF5D1016B012909D101680C3131
:1025800051E8002F22F0100241E80023002BF5D182
:10259000202180F8421000210163704701680C314E
:1025A00051E8002F22F0C00241E80023002BF5D1B2
:1025B000202180F84110704708B590F84210222978
:1025C00001D0022008BD82684FF480539A4201D1A5
:1025D000016921B1816A9A421BD04AB10AE00268BE
:1025E000816A5268C2F308020A80816A891C08E085
:1025F000026972B10268526802F07F020A70816A51
:10260000491C8162C18D491E0904090CC18503D092
:102610001BE002685268F1E70168CA6822F02002F4
:10262000CA600168CA6822F48072CA6001684A6997
:1026300022F001024A61202180F84210002141630A
:10264000026B012A03D0FFF721FB002008BD0163C4
:1026500001680C3151E8002F22F0100241E80023FC
:10266000002BF5D101680A68D20602D50A684968CC
:102670000091818DFFF7F0F8E7E7000070B50446A0
:1026800000680169E26821F4405111430161216948
:10269000A068E26908436169114308432168CA6878
:1026A00049F20C639A430243CA6020684169A269F7
:1026B00021F440711143416131492068884202D0C0
:1026C0003049884202D1FEF7F1FB01E0FEF7DEFB64
:1026D000E2690023192164253226B2F5004F6268B1
:1026E00028D0A0FB0101930F9200FDF7BDFD01462C
:1026F000B0FBF5F06FF01802504301EB800006EBE1
:102700000010B0FBF5F000F0F002B1FBF5F002EBC9
:102710000012B1FBF5F06FF01803584301EB800095
:1027200006EB0010B0FBF5F000F00F00216810443C
:10273000886070BDA0FB010192185B41FDF794FD1C
:102740000146B0FBF5F00201B1FBF5F06FF01803A4
:10275000584301EB800006EBC000B0FBF5F000F041
:10276000F80002EB4002B1FBF5F0584301EB8000AA
:1027700006EBC000B0FBF5F000F00700D6E7000064
:102780000010014000140140642202490248FFF792
:102790003EB800003C020020EC00002038B5816209
:1027A00004468285002013466064222284F8422079
:1027B000E56B1F4AEA63E56B1E4A2A64E56B1E4A15
:1027C000EA64E26B10650A462168E06B091DFEF7BA
:1027D000A3F830B110206064202084F8420001206A
:1027E00038BD2068016840680090206948B12068C1
:1027F0000C3050E8001F41F4807140E80012002ABC
:10280000F5D12068143050E8001F41F0010140E884
:102810000012002AF5D12068143050E8001F41F062
:10282000400140E80012002AF5D1002038BD000028
:102830005B240008E3240008112400080148FFF786
:1028400031B80000EC00002070B50B4D0C466978E3
:1028500000290FD1002C0DD0014622460748FDF774
:102860007AFD012068702246BDE8704003490448A3
:10287000FFF70EBA70BD000014000020A002002077
:10288000EC000020FEE74100080218BF04200A0EF9
:1028900018BF40F001004FF07F4232EA010108BF4B
:1028A00040F00200012808BF052070470907090E03
:1028B000002804DB00F1E02080F80014704700F0ED
:1028C0000F0000F1E02080F8141D704700B510EEF5
:1028D000101A2DED028B81B0524A6846B2EB410FBF
:1028E0002ED94FF0E640B0EB410F94BF00204FF0DF
:1028F000FF3000900098B0EE408A00286ADB10F0AC
:10290000010F4BD068EE080A9FED471A9FED470A6A
:1029100000EE810A9FED461A10F0020F00EE801AB9
:10292000B7EE000A00EE810A02BF01B0BDEC028BD7
:1029300000BD00BF01B0B1EE400ABDEC028B00BD8E
:102940003C4B21F00042934241D911F0004FDFEDA2
:102950003A0A20EE201ADFED390A19BF31EE601A6B
:1029600071EE200A31EE201A71EE600ABDEEE01A17
:1029700011EE100A9FED321A00F0030000EEC10ABA
:102980009FED301A009000EEC10A9FED2F1A00EE65
:10299000C10A9FED2E1A00EEC10AABE728EE080A25
:1029A0009FED2B1ADFED2B0A10F0020F40EE410ACB
:1029B0009FED291A00EE201A61EE000AB0EE480AD7
:1029C00008EE200AB6D101B0BDEC028B00BD00F0CC
:1029D00059F88FE718EE100A4000B0F17F4F0DD282
:1029E00018EE100AFFF74FFF042808BF00F042F866
:1029F000B0EE480A01B0BDEC028B00BD09D1012048
:102A0000FDF71DFD01B0BDEC028B5DF804EB00F09D
:102A100029B801B0B0EE480ABDEC028B5DF804EBBA
:102A200000F01CB8B61F927EB93AB2BACA9F2A3DCE
:102A3000DDFFFFBE490E494683F9223F0000004BEF
:102A40000000C93F00A0FD390020A2331A61342CD8
:102A5000336D4C39DA82083CA0AA2ABE30EE000A57
:102A600070470000DFED020A80EEA00A7047000008
:102A7000000000009FED020A20EE000A70470000EF
:102A8000000000102DE9F0014FF07F42B2EB410F42
:102A90009FBF4FF0FF310160BDE8F00170474FF07C
:102AA000004242EA0123C1F3C752783A551112F0AD
:102AB0001F0C434CCCF120067C44C1F3C752A2F159
:102AC00078024FEA621204EB820254F8254008BFF4
:102AD000D2E9015612D0556804FA0CF425FA06F72B
:102AE0003C43976805FA0CF527FA06F8D26807FA0E
:102AF0000CFCF24045EA08054CEA0206A4FB034C34
:102B0000A5FB0352A6FB03631D449D4234BF01266F
:102B100000261319334416B1934202D903E09342BD
:102B200001D2012200E00022624402F1200C920650
:102B3000DC0C42EA443200EE102A5B03DFED210A8E
:102B4000F8EEC01A00EE103A4FEA9C1C11F0004F4C
:102B5000B8EE400AC0F800C020EE201A00EE105A6D
:102B6000DFED190AB8EE400A20EE200A71EE810A64
:102B700070EE800A10EE902A02F500626FF30B02ED
:102B800000EE902A70EEE11A31EEC11ADFED101A54
:102B900030EE411A9FED0D0A20EE800A01EE210A67
:102BA0009FED0C1A00EE810A04BFBDE8F0017047EA
:102BB000CCF180510160BDE8F001B1EE400A7047F0
:102BC00088040000000000360000802C22AAFD29A5
:102BD000DB0FC92F0000C92F70B52E4C607808B3E9
:102BE00000260225012825D002283DD0032818D12F
:102BF00004F1100000F084F978B1032000F0CEF861
:102C0000042000F0CBF865706068401EC0F114012C
:102C1000606004F1100000F06BF96068002800D1DA
:102C2000667070BD1B48103000F06AF90028F8D0BB
:102C3000012020E01748103000F062F978B103203D
:102C400000F0ACF8042000F0A9F866706068401C41
:102C5000C0F1140160600F48103000F049F960685D
:102C60001428DED1657070BD0A48103000F048F9B4
:102C70000028F8D003206070032000F0A9F8042099
:102C800000F0A6F86168BDE870400248103000F01E
:102C90002FB900002400002010B5032000F07EF8BA
:102CA000042000F07BF805480021416041701421A8
:102CB000BDE81040103000F01BB9000024000020D7
:102CC00010B5044600F014F80449012008702146AC
:102CD0000248BDE81040001D00F00AB918000020AD
:102CE00000224FF480710148FDF74BBF0000024005
:102CF000012211020148FDF744BF0000000002401C
:102D000010B5074C2078002808D0201D00F0F8F8F6
:102D1000002803D0FFF7E4FF0020207010BD000062
:102D20001800002010B5124800F0EAF800281ED064
:102D30000F4C083C207800284FF0010005D000F02F
:102D40002DF8022000F044F804E000F041F80220E1
:102D500000F024F8207840B100202070BDE8104039
:102D60004FF49671024800F0C3B80120F5E710BD9A
:102D70002C00002010B5012000F02AF8022000F0FD
:102D80000DF80549012008700348BDE810404FF4D4
:102D90009671083000F0ACB82400002001460B48C2
:102DA000012909D002290AD003290BD004290CD10A
:102DB00000228021FDF7E5BE00221021FAE7002263
:102DC0002021F7E700224021F4E77047000002408D
:102DD00001460B48012909D002290AD003290BD04A
:102DE00004290CD101228021FDF7CBBE0122102144
:102DF000FAE701222021F7E701224021F4E770479A
:102E0000000002402DED048BDFED348AB0EE688ABD
:102E1000FDF7CAFEFFF730F9FFF74CF8FFF72CF883
:102E2000FFF782F8FFF7B2F8FFF704F9FFF7ACFC01
:102E30002B4C00262B4D80274FF07F089FED2A9AC0
:102E4000DFF8A890FEF774FFC0B2012802D0022874
:102E50000ED01DE02078012820D001202070032012
:102E6000FFF79CFF0420FFF799FFFFF783FF0CE0BB
:102E70002078022815D0022020700120FFF78EFF55
:102E80000220FFF78BFFFFF707FFC820FFF718FFAF
:102E90002078012802D0022803D004E0FFF742FF87
:102EA00001E0FFF799FEFFF72BFFB0EE480AFFF7AE
:102EB0000DFD10EE100A082128602E716E71AF71A1
:102EC00085F807800748FFF7BFFC38EE098A18EE3F
:102ED000100A4845B6DDB0EE688AB3E7000000008E
:102EE00000000020A0020020CDCC4C3D560EC94071
:102EF00070B50D460446FDF749FEC4E9000570BDF6
:102F000010B50446FDF742FE2168401A6168884208
:102F100001D3012010BD002010BD4FF04070E1EE44
:102F2000100A704700061016000610160000000078
:102F30000000000001020304060708090000000069
:102F400001020304000000006E83F9A22915444E1B
:102F5000D15727FCC0DD34F5999562DB4190433CA5
:102F6000AB6351FE842F0008000000205C000000CD
:102F7000C4010008E02F00085C000020BC0800002D
:102F8000E001000800000000010000001000000047
:102F9000000000000024F400000000000000000019
:102FA0000000000000000000010000000000000020
:102FB0000000000000000000000000000000000011
:102FC0000000000000000000000000000000000001
:102FD00000000000000000000000000000000000F1
:040000050800018965
:00000001FF
