:020000040800F2
:1000000020520020E9020008F72A00088327000890
:10001000F52A0008B9060008CD33000800000000EA
:10002000000000000000000000000000290200089D
:100030001508000800000000850200088D2B00084C
:100040000303000803030008030300080303000878
:100050000303000803030008030300080303000868
:100060000303000803030008030300080303000858
:100070000303000803030008030300080303000848
:100080000303000803030008030300080303000838
:10009000BD060008C90600080303000803030008A2
:1000A00003030008512C00080303000803030008A1
:1000B0005D2C0008692C00080303000803030008F6
:1000C00003030008030300080303000803030008F8
:1000D0000303000885330008030300080303000836
:1000E00003030008030300080303000803030008D8
:1000F00003030008030300080303000803030008C8
:1001000003030008030300080303000803030008B7
:1001100003030008030300080303000803030008A7
:100120000303000803030008F506000803030008A2
:1001300003030008000000000000000003030008A3
:100140000303000803030008030300080303000877
:100150000303000803030008010700080303000865
:100160000303000803030008030300080303000857
:100170000303000803030008000000000000000063
:10018000030300080303000800F002F800F03CF845
:100190000AA090E8000C82448344AAF10107DA45E2
:1001A00001D100F031F8AFF2090EBAE80F0013F0F8
:1001B000010F18BFFB1A43F001031847A04C0000C1
:1001C000C04C0000103A24BF78C878C1FAD8520752
:1001D00024BF30C830C144BF04680C6070470000C1
:1001E0000023002400250026103A28BF78C1FBD840
:1001F000520728BF30C148BF0B6070471FB504F0DD
:1002000089FD1FBD10B510BD00F0D0F91146FFF7F4
:10021000F5FF03F02FF900F0EEF903B4FFF7F2FF5A
:1002200003BC00F0F5F900002C4B19680868B0E831
:10023000F04F80F30988BFF36F8F4FF0000080F319
:10024000118870470000000008480068006880F3CB
:1002500008884FF0000080F3148862B661B6BFF3DF
:100260004F8FBFF36F8F00DF00BF00BF08ED00E0CE
:10027000DFF80C00016841F470010160704700BFB5
:1002800088ED00E0EFF30980BFF36F8F134B1A681E
:100290001EF0100F08BF20ED108A20E9F04F10600B
:1002A00009B44FF0500080F31188BFF34F8FBFF3B4
:1002B0006F8F04F001F84FF0000080F3118809BC43
:1002C00019680868B0E8F04F1EF0100F08BFB0ECD6
:1002D000108A80F30988BFF36F8F704728000020D1
:1002E000EFF3058070470000094880470948004740
:1002F000FEE7FEE7FEE7FEE7FEE7FEE7FEE7FEE7D6
:10030000FEE7FEE704480549054A064B7047000032
:10031000412C000889010008204C002020520020B8
:10032000204E0020204E002053EA020C00F069808D
:100330002DE9F04B4FF00006002B1FBFB3FA83F5F9
:1003400003FA05F424FA05F65E4012BF1643B2FA2A
:1003500082F502FA05F4C5F120051EBF22FA05FC5C
:1003600044EA0C04203556EA044C4FEA144418BF02
:10037000641C4FF000084FF00009904271EB030C31
:1003800039D3002919BFB1FA81F701FA07F6B0FA9B
:1003900080F700FA07F6C7F120071EBF20FA07FC16
:1003A00046EA0C062037B6FBF4FCA7EB0507103F26
:1003B00007F01F0BCBF120060CFA0BFB2CFA06F60C
:1003C00044BFB3460026202FA4BF5E464FF0000B6B
:1003D0005BEA060C08BF4FF0010B19EB0B09ABFBF6
:1003E000027C48EB0608C01B06FB02CC0BFB03CCCF
:1003F00071EB0C01C1E70B46024641464846BDE899
:10040000F08B13B54FF000004FF00001AFF3008008
:10041000BDE81C407047032A40F2308010F0030C06
:1004200000F0158011F8013BBCF1020F624498BF47
:1004300011F801CB00F8013B38BF11F8013BA2F1E4
:10044000040298BF00F801CB38BF00F8013B11F05F
:10045000030300F05780083AC0F0088051F8043BCD
:10046000083A51F804CBA0E80810F5E7121D5CBF6C
:1004700051F8043B40F8043BAFF30080D20724BF9F
:1004800011F8013B11F801CB48BF11F8012B24BF33
:1004900000F8013B00F801CB48BF00F8012B704782
:1004A00002F0FF0343EA032242EA024200F05EB890
:1004B0004FF0000200B5134694469646203922BFFD
:1004C000A0E80C50A0E80C50B1F12001BFF4F7AF48
:1004D000090728BFA0E80C5048BF0CC05DF804EB2A
:1004E000890028BF40F8042B08BF704748BF20F898
:1004F000022B11F0804F18BF00F8012B7047704796
:100500007047704710B5203AC0F00B80B1E8185022
:10051000203AA0E81850B1E81850A0E81850BFF4ED
:10052000F5AF5FEA027C24BFB1E81850A0E818508C
:1005300044BF18C918C0BDE810405FEA827C24BFE0
:1005400051F8043B40F8043B08BF7047D20728BF6E
:1005500031F8023B48BF11F8012B28BF20F8023BBD
:1005600048BF00F8012B70474FF000020429C0F08B
:10057000128010F0030C3FF49DAFCCF1040CBCF1E1
:10058000020F18BF00F8012BA8BF20F8022BA1EB27
:100590000C01FFF78FBF5FEAC17C24BF00F8012B7D
:1005A00000F8012B48BF00F8012B7047754600F09A
:1005B0002BF8AE4605006946534620F007008546F5
:1005C00018B020B5FFF79EFEBDE820404FF00006B2
:1005D0004FF000074FF000084FF0000B21F007012B
:1005E000AC46ACE8C009ACE8C009ACE8C009ACE86E
:1005F000C0098D46704710B50446AFF30080204611
:10060000BDE81040FFF709BE00487047C04B00200E
:1006100001491820ABBEFEE726000200704700002B
:1006200000224FF48071014800F078BF00000240C2
:1006300001221102014800F071BF000000000240D9
:1006400008B504F0BFF90C4C009072B6207862B681
:1006500048B1C0070CD0FFF7E3FF72B6207808B1AD
:10066000401E207062B66421684603F051FDECE73D
:10067000FFF7DEFFF1E70000C100002008B504F03D
:10068000A1F90A4E0A4F0B4D00240090307820B19A
:100690003988084802F0ACFE03E028684463286803
:1006A00084630A21684603F033FDEFE7B0000020C1
:1006B000B400002040010020FEE70000014800F0E7
:1006C00028BA0000D0000020014800F022BA000043
:1006D000D000002000B587B0009100210191029167
:1006E000CDE903138DF8141006AB694600F0A7F8A6
:1006F00007B000BD014800F0A7BC0000D0010020F9
:10070000014800F0A1BC000030020020016818235D
:10071000CAB2103AB2FBF3F2054B6FF30901032A98
:100720009B5CC36500D9091D8165084670470000C0
:10073000F84D000810B5014600208B698A6A4FF019
:10074000C07453B1B3F5005F15D072B1012A0CD05B
:10075000022A0AD0032A09D104E01AB1012A06D0DC
:10076000022A03D1C96AC90100D5012010BDC96A96
:10077000A142FAD010BD002AF7D0012AF2D0022AF5
:10078000F3D0032AF3D010BD30B50468256825F4F2
:1007900080252560046863608368402B036803D06C
:1007A00099600068C26030BD9A600068C16030BD69
:1007B00008B504F007F9124D124CDFF84C90134EB7
:1007C00000274FF0A5084FF05A0A0090287801281A
:1007D00011D184F8008099F80000607030880523FA
:1007E000010AA170E07084F804A0064A01210848BB
:1007F000FFF770FF2F706421684603F089FCE5E77E
:10080000B2000020C8000020B0000020B40000208A
:10081000D0000020704772B6FEE790F82020012A31
:1008200007D0022A05D0416A41F4802141620120AB
:100830007047006842690A43426100207047F0B582
:1008400090F820500468A468012D05D0022D03D033
:10085000416A41F4802157E014F0406F01D1E50076
:100860004FD5C4F301640125A5401D608D684FF488
:10087000C0739DB1CE6835434E6845EAC60506682B
:1008800003EB0417F5514FF4C275076805EB041527
:100890000E697E51097D012905D009E00E88CD68D9
:1008A00045EA4655EBE701684E5946F480764E51CD
:1008B0001179D579567941EA056195792D0445EA92
:1008C000062529434FF4C676056806EB0416A951A0
:1008D0001178D57841EA0561957852782D0445EA7A
:1008E000022211434FF4C475026805EB04155151FF
:1008F000006803EB0411425842F00102425000200C
:10090000F0BD416A41F4001141620120F0BD0000D8
:1009100010B590F82020012A07D0022A05D0416A9C
:1009200041F480214162012010BD3B48D0F80022F3
:1009300042F00102C0F80022D0F8002222F47C52DA
:10094000C0F80022D0F800224B6A42EA0322C0F825
:1009500000220A7D02F01F0301229A40D0F81C32C7
:100960009343C0F81C32CB69B3B9D0F80C3293432F
:10097000C0F80C328C894B6864F31F434C6900EB60
:10098000C404C4F840320C890B6864F31F434C69FB
:1009900000EBC404C4F84432CB69012B16D1D0F863
:1009A0000C321343C0F80C320C884B6864F31F43BD
:1009B0004C6900EBC404C4F840320C89CB6864F382
:1009C0001F434C6900EBC404C4F844328B69002B0C
:1009D000D0F804320ED01343C0F804320B69002B58
:1009E000D0F8143208D01343C0F81432096A012930
:1009F00004D008E09343EFE79343F5E7D0F81C12E7
:100A00001143C0F81C12D0F8001221F00101C0F807
:100A10000012002010BD000000640040704770B557
:100A200090F82040012C05D0022C03D0416A41F4FB
:100A3000802128E0046809B32469A40720D04FF47A
:100A4000D874056804EB01142D5915F00405956060
:100A500005682D591AD0ED08556005682C5904F029
:100A60000204D4604FF4DA74056804EB01142E59C3
:100A700006F00F06082E0CD308250DE0E468DCE72D
:100A8000416A41F400114162012070BD6D0D156095
:100A9000E3E72D5905F00F05156105682D59C5F3DC
:100AA0000725956105682C59240C54614FF4DC72BC
:100AB000046802EB0112A4581C700468A458240AAC
:100AC0005C700468A458240C9C700468A258120E30
:100AD000DA704FF4DE72046802EB0112A4581C7144
:100AE0000468A458240A5C710468A458240C9C71FE
:100AF0000468A258120EDA71006829B1016941F048
:100B000020010161002070BDC16841F02001C16079
:100B1000F8E72DE9F05F0546006800244669D0F843
:100B200004908768D0F80CB0D0F810A0D0F81880E6
:100B3000F10748D0F90714D001218160B80703D527
:100B4000284600F020FA0CE0780702D54FF4006444
:100B500007E0380702D54FF4805402E0284600F041
:100B600011FAF80516D529684FF480708860B80529
:100B700003D5284600F009FA0CE0780502D544F4C4
:100B8000005407E0380502D544F4804402E02846CA
:100B900000F0FAF9F80316D529684FF48030886020
:100BA000B80303D5284600F0F2F90CE0780302D52B
:100BB00044F4004407E0380302D544F4803402E0F2
:100BC000284600F0E3F9300707D55FEACB6004D58B
:100BD0002968102044F40074C86070074FF00807BB
:100BE00007D55FEA0B7004D52868C760284600F077
:100BF0006BF9B00706D52868C068800702D0284680
:100C000000F064F9700607D55FEACA6004D5296868
:100C1000102044F480640861B00607D55FEA0A70CA
:100C200004D528680761284600F07CF9F00606D54F
:100C300028680069800702D0284600F074F9B003E4
:100C400008D55FEAC96005D52968102048602846A4
:100C500000F06AF9F00307D55FEA097004D5286847
:100C60004760284600F094F9300446D55FEA4970A1
:100C700040D5F00504D55FEAC87001D044F0010406
:100C8000B00504D55FEA887001D544F00204700510
:100C900004D55FEA487001D544F00404300529D535
:100CA00018F0700F26D008F07000402815D006DC30
:100CB000102809D020280AD0302816D10AE0502860
:100CC0000ED0602811D10EE044F008040DE044F08D
:100CD00010040AE044F0200407E044F0400404E07B
:100CE00044F0800401E044F480742868816921F0B4
:100CF00070018161296804204860002C05D0686A71
:100D0000204368622846FFF789FEBDE8F09F70B572
:100D1000040003D094F8200010B104E0012070BD5D
:100D2000204600F081F82068016841F0010101606F
:100D300000F0FAFB0546052604E000F0F5FB401B39
:100D40000A2811D820684068C007F6D020680168DA
:100D500021F00201016000F0E7FB05460BE000F026
:100D6000E3FB401B0A2806D9606A40F40030606249
:100D700084F82060D2E7206840688007EFD4207EA6
:100D80000128206801683DD021F080010160607E6B
:100D900001282068016838D021F040010160A07E60
:100DA00001282068016833D021F020010160E07E35
:100DB0000128206801682ED041F010010160207FD9
:100DC00001282068016829D021F008010160607FB6
:100DD00001282068016824D021F004010160D4E9D1
:100DE00002010843D4E90412114308436168491E13
:100DF00008432168C86100206062012084F8200057
:100E0000002070BD41F08001C0E741F04001C5E71E
:100E100041F02001CAE721F01001CFE741F00801BD
:100E2000D4E741F00401D9E7F0B587B004461421B6
:100E30006846FFF73DFB2149206888423CD12048A5
:100E40000021026842F000720260006800F0007049
:100E500005901B481038026842F0010202600068E9
:100E600002AA00F0010005900325092682E862002D
:100E70004FF400600224CDE90004124F6946384661
:100E800000F054FAE002CDE9000402AA694682E8C3
:100E90007000384600F04AFA00220521142000F0C4
:100EA000DBFB142000F0CAFB00220521152000F016
:100EB000D3FB152000F0C2FB07B0F0BD006400407A
:100EC00040380240000002407047000000B5124A5E
:100ED000016887B0914213D1104B6A460021FFF799
:100EE0009EFD00280CD10298002809D1009A0B49D8
:100EF0000B48022A06D0102A02D109784900417015
:100F000007B000BD097800EE101A0121B8EE400AC2
:100F100080ED010A0170F3E700640040B64B002049
:100F2000C0000020704770477047000070B504464D
:100F300090F82000012804D0606A40F4002060622C
:100F400018E0022084F820002068016821F00101E7
:100F5000016000F0E9FA05460EE000BF00F0E4FA97
:100F6000401B0A2808D9606A40F4003060620520FE
:100F700084F82000012070BD20684068C007EDD1D2
:100F8000606270BD70477047704770477047704728
:100F900070472DE9F0410446876D00F0C5FA06461A
:100FA00094F835000025022806D08020606584F87A
:100FB00034500120BDE8F0812068016821F016015D
:100FC00001602068416921F080014161206C08B90D
:100FD000A06C20B12068016821F008010160206840
:100FE000016821F0010101600CE000F09DFA801B16
:100FF000052807D920206065032084F8350084F88F
:101000003450D7E720680068C007EED194F85C1030
:101010003F208840B860012084F8350084F83450BF
:101020000020C7E790F83510022903D080214165E0
:1010300001207047052180F835100068016821F013
:1010400001010160002070472DE9F84304464FF08C
:101050000009CDF8009063484FF41651A56D006863
:10106000B0FBF1F72E6894F85C10082000FA01F14B
:1010700031420FD021680A6852070BD50A6822F066
:1010800004020A6094F85C108840A860606D40F02B
:101090000100606594F85C104FF0010808FA01F057
:1010A000304208D021684969090604D5A860606DFE
:1010B00040F00200606594F85C10042088403042E3
:1010C00008D021680968890704D5A860606D40F0E0
:1010D0000400606594F85C1010208840304218D0FD
:1010E00021680968090714D5A860206801684903C8
:1010F00004D50068000308D5A16C07E00168C905A4
:1011000003D4016821F008010160216C09B1204677
:10111000884794F85C1020208840304231D0216804
:101120000968C9062DD5A86094F8350005282068FF
:10113000016806D0490347D5006800031DD4616CDF
:101140001CE021F0160101602068416921F0800156
:101150004161206C08B9A06C20B12068016821F0C1
:101160000801016094F85C103F208840A86084F872
:10117000358084F83490216D1FE0E16B09B1204681
:101180008847606D00282BD0606DC00714D0052003
:1011900084F835002068016821F0010101600098A1
:1011A000401C0090B84203D820680068C007F6D100
:1011B00084F8358084F83490E16C002910D001B0B7
:1011C0002046BDE8F04308470168C905D5D4016849
:1011D00021F01001016084F8358084F83490CCE768
:1011E000BDE8F883240000202DE9F041044600F01A
:1011F0009BF906465CB1022084F83500002584F88E
:1012000034502068016821F0010101600DE00120E7
:10121000BDE8F08100F088F9801B052805D9202061
:101220006065032084F83500F2E720680068C00795
:10123000F0D12268116820480140D4E90103184325
:10124000D4E903363343184363691843A369184349
:10125000E3691843236A18430843616A042903D1E8
:10126000D4E90B1319430843106020684069666A8B
:1012700020F0070130460E43012704280CD1A06A54
:101280000643E06A40B12046FFF754FA20B14020FF
:10129000606584F83570BAE7206846612046FFF73C
:1012A00035FA94F85C203F2191408160656584F8AF
:1012B00035700020ACE700003F8010F02DE9F041D0
:1012C0000446866D90F83400002501280DD00120D9
:1012D00084F8340094F835700020012F07D084F88A
:1012E000340002252846BDE8F0810220FBE70227F2
:1012F00084F8357060652046FFF746FA94F85C1074
:101300003F208840B0602068016841F0160101600C
:10131000206C20B12068016841F00801016020685C
:10132000016841F001010160DCE700002DE9F84FA0
:10133000DFF8BCA10022012503264FF00F090AF1B6
:10134000040BAAF1040E00BF0B6805FA02F4234057
:10135000A34270D10F7907F00307012F01D0022FAC
:1013600016D187684FEA420806FA08FC27EA0C07FC
:10137000D1F80CC00CFA08FC4CEA070CC0F808C005
:101380004768A7430C79C4F3001494403C4344607D
:101390000C79E443A4070AD0C4684FEA420C06FA69
:1013A0000CF7BC438F6807FA0CF72743C7600C792A
:1013B00004F00304022C12D1D40800EB840CDCF8F6
:1013C00020405707FF0E09FA07F824EA0804D1F86D
:1013D000108008FA07F848EA0408CCF8208004686E
:1013E0004FEA420C06FA0CF7BC430F7907F00307EB
:1013F00007FA0CF7274307604C6814F4403F70D09D
:101400003C4C276847F480472760246822F0030794
:1014100004F480440094384C07EB040CDCF80848D2
:1014200097074FEA177809FA08F7BC43334FB842D9
:1014300002D1002724E054E0314FB84201D1012706
:101440001EE0304FB84201D1022719E02E4FB842BA
:1014500001D1032714E02D4FB84201D104270FE03A
:101460002B4FB84201D105270AE02A4FB84201D1DB
:10147000062705E0284FB84201D1072700E00827DA
:1014800007FA08F72743CCF80878DAF800405746FF
:10149000D1F804C09C435FEACC2C00D51C433C60CF
:1014A000DBF800405F46D1F804C09C435FEA8C2C17
:1014B00000D51C433C60DEF800407746D1F804C0FC
:1014C0009C435FEA8C3C00D51C433C60084F083FBE
:1014D0003C68D1F804C09C435FEACC3C00D51C4377
:1014E0003C60521C102AFFF42FAFBDE8F88F0000BB
:1014F000083C0140443802400030014000000240F6
:101500000004024000080240000C024000100240AB
:101510000014024000180240001C02400AB1816120
:1015200070470904FBE7000001488068704700002D
:1015300018000020024881680278114481607047D9
:10154000180000200B4810B5016841F400710160DB
:10155000016841F480610160016841F480710160BB
:10156000032000F099F80F2000F006F800F04AF888
:10157000002010BD003C024030B505461C4887B035
:101580000024016841F001010160006806A900F033
:101590000100009001A800F02BF900F059F915495D
:1015A0004000B0FBF1F11548134A491E026040F2B9
:1015B000E732C0E90324C0E90114846100F08AFB2A
:1015C000040012D10D4800F0E3FB04000DD11920F6
:1015D00000F034F8102D07D200222946192000F01F
:1015E0003BF80748056000E0012407B0204630BD05
:1015F0004438024040420F000000014090020020A9
:101600001C0000200C4882B0016841F48041016058
:10161000006800F4804000900748001F016841F016
:10162000805101600068002200F0805000900F217E
:10163000901E02B000F010B844380240002809DBC8
:1016400000F01F02012191404009800000F1E020DC
:10165000C0F8001170470000F0B40E4B1B680C4638
:10166000C3F30223C3F10705042D00D90425191D76
:10167000072901D2002300E0DB1E012606FA05F14E
:10168000491E214099409E40761E16403143F0BCD1
:1016900001F09DBE0CED00E0064900F0070208686D
:1016A0004FF6FF03184040EA0220034A1043086047
:1016B000704700000CED00E00000FA052DE9F0474E
:1016C0000E46050065D0DFF81481D8F80000F7B2A7
:1016D00000F00700B04207D288F80070D8F8000088
:1016E00000F00700B04254D128683D4C810712D564
:1016F000400703D5206840F4E050206028780007B8
:1017000003D5206840F4604020602068A96820F07C
:10171000F000084320602878C0072DD03049686861
:101720000839012812D0022813D0032811D00968E3
:10173000890700292DDA216821F003010143216086
:10174000FFF7F2FE814641F2883A0EE0096889030C
:10175000EFE709688901ECE7FFF7E6FEA0EB090176
:10176000514502D90320BDE8F0872068696800F080
:101770000C00B0EB810FEFD1D8F80010404601F01B
:101780000701B14207D90770006800F00700B042B6
:1017900001D00120E7E72878400705D52068E968EF
:1017A00020F4E050084320602878000706D5206820
:1017B000296920F4604040EAC100206000F058F838
:1017C0002168084AC1F30311515CC840064908600A
:1017D00006480068FFF7D0FE0020C4E7003C024046
:1017E00008380240004E0008240000201C000020A1
:1017F0000F2202600C4A136803F00303436013686E
:1018000003F0F0038360136803F4E053C3601268CD
:101810004FF4E05303EAD20202610448006800F08A
:10182000070008607047000008380240003C024092
:101830000448054900680968044AC1F38221515CE3
:10184000C84070472400002008380240104E0008AD
:101850000448054900680968044AC1F34231515CF3
:10186000C84070472400002008380240104E00088D
:10187000154810B5006810F00C02144813D0144934
:10188000042A0FD0082A0ED10F4C241F2268236887
:1018900002F03F025B0207D52068C0F38810A0FB6E
:1018A000010106E0084610BD2168C1F38811A1FBC3
:1018B00000010023FEF738FD2168C1F30141491CF6
:1018C0004900B0FBF1F010BD083802400024F400DC
:1018D00040787D012DE9F84F04006ED02078DFF8C4
:1018E0004C93C007A9F104054AD009F1040001682E
:1018F000C1F38101012908D00068C0F381000228EA
:101900000AD1D9F80000400206D52868800337D5EF
:1019100060680028E1D033E06068B0F5803F10D007
:10192000B0F5A02F286810D020F4803028602868F7
:1019300020F4802028606068A8B1FFF7F5FD064616
:101940000DE0286840F48030F4E740F480202860FF
:10195000F7E700BFFFF7E8FD801B642873D828680D
:101960008003F7D50CE0FFF7DFFD064605E000BF7A
:10197000FFF7DAFD801B6428F0D828688003F7D4CD
:101980002078DFF8AC8280074FF0000A3ED5A748E8
:10199000001D016811F00C0F08D00068C0F3810031
:1019A00002280BD1D9F80000400207D4286880072C
:1019B00016D5E068012800D112E033E1E068B8B143
:1019C0000120C8F80000FFF7AFFD064605E000BFA4
:1019D000FFF7AAFD801B0228C0D828688007F7D52A
:1019E0002868216920F0F80040EAC10028600DE075
:1019F000C8F800A0FFF798FD064604E0FFF794FD45
:101A0000801B02281FD828688007F7D42078000799
:101A100022D5864F87486169703771B10121016015
:101A2000FFF782FD064604E0FFF77EFD801B0228DB
:101A300009D838688007F7D50EE0C0F800A0FFF796
:101A400073FD064605E082E0FFF76EFD801B02286D
:101A50007DD838688007F7D42078400768D5DFF84C
:101A6000CCB100270BF13C0BDBF80000C0000BD41D
:101A7000DBF8001041F08051CBF80010DBF80000DB
:101A8000012700F0805000906B4E3068C00510D4E4
:101A9000306840F480703060FFF746FD009005E04C
:101AA000FFF742FD0099401A022850D83068C0055F
:101AB000F6D55E4EA0686C3601280FD00528306838
:101AC00010D020F001003060306820F00400306059
:101AD000A068B8B1FFF728FD00900FE0306840F033
:101AE0000100F4E740F004003060F7E7FFF71CFD69
:101AF0000099411A41F28830814266D830688007E7
:101B0000F4D50EE0FFF710FD009007E0FFF70CFDA5
:101B10000099411A41F28830814256D830688007D6
:101B2000F4D42FB1DBF8001021F08051CBF8001075
:101B3000A069C8B33D49091D0968C1F381010229A3
:101B40004AD00228504607D0C8F8600000E03CE0C8
:101B5000FFF7EAFC04463BE04746C8F86000FFF7A1
:101B6000E3FC064605E000BFFFF7DEFC801B022811
:101B70002BD828688001F7D4D4E907010843A16A6B
:101B80002E4A490802EB0141626A41EA8211084388
:101B900094F82C1040EA0161C9F800100120386661
:101BA000FFF7C2FC044606E03EE000BFFFF7BCFCC6
:101BB000001B022809D828688001F7D534E000BF4F
:101BC000FFF7B2FC001B022802D90320BDE8F88F02
:101BD00028688001F4D427E00128F7D0D9F8000064
:101BE000E26900F4800191421CD1226A00F03F01B9
:101BF000914217D147F6C071626A0140B1EB821F72
:101C000010D1A26A4FF0FF3300F4403103EB5202CF
:101C1000B1EB024F06D194F82C1000F07060B0EBDD
:101C2000016F01D00120D1E70020CFE70438024046
:101C300000004742800E4742007000400000FFFF56
:101C40007047704770B590F83C20012A32D00124CB
:101C500080F83C40022280F83D2003685A689D6865
:101C600022F070060A6832435A60134B02689A42A7
:101C700014D0B2F1804F11D0104B9A420ED0104BBD
:101C80009A420BD00F4B9A4208D00F4B9A4205D084
:101C90000E4B9A4202D00E4B9A4204D1496825F06D
:101CA00080031943916080F83D40002180F83C108A
:101CB000084670BD022070BD0000014000040040D5
:101CC00000080040000C00400004014000400140BA
:101CD0000018004010B5040003D094F83D0010B186
:101CE00007E0012010BD002084F83C00204600F0F1
:101CF0001FF8022084F83D00211D206800F0BAFF83
:101D0000012084F8460084F83E0084F83F0084F8FF
:101D1000400084F8410084F8420084F8430084F8CD
:101D2000440084F8450084F83D00002010BD000008
:101D300008B501681448B1F1804F14D0134A91429C
:101D400020D1016841F0020101600068002200F02A
:101D50000200009005211D20FFF77EFC1D20BDE83C
:101D60000840FFF76BBC016841F0010101600068A9
:101D7000002200F00100009005211C20FFF76CFC00
:101D80001C20ECE708BD0000403802400004004081
:101D900090F83D10012901D001207047022180F800
:101DA0003D100168CA6842F00102CA60006811492A
:101DB000884214D0B0F1804F11D00F4988420ED024
:101DC0000E4988420BD00E49884208D00D498842FE
:101DD00005D00D49884202D00C49884204D181685F
:101DE00001F00701062903D0016841F001010160FB
:101DF000002070470000014000040040000800403F
:101E0000000C004000040140004001400018004068
:101E100070B5044690F83C000025012817D0012633
:101E200084F83C60022084F83D002068826822F03B
:101E3000770222F47F4282600868502838D00DDC97
:101E400020284FD005DC90B3102811D14AE00220A1
:101E500070BD302846D040280AD13BE060282FD002
:101E600070280DD0B0F5805F03D0B0F5005F12D0C0
:101E7000012584F83D60002084F83C00284670BDB0
:101E8000CB68D1E90121206800F069FF20688168F2
:101E900041F0770109E0CB68D1E90121206800F029
:101EA0005EFF2068816841F480418160E1E719E0CC
:101EB000CA684968206801F027F85021206806E0C8
:101EC000CA684968206801F030F86021206800F095
:101ED00050FFCEE7CA684968206801F015F8402134
:101EE0002068F4E7226801461046F0E770472DE9C4
:101EF000F04104460068C66805694FF00007A9076D
:101F000013D5B10711D5F91E016101202077206892
:101F100080698007204602D0FFF7E8FF04E000F068
:101F2000A7F8204600F039F92777680716D570071B
:101F300014D521686FF00400086102202077206822
:101F4000806910F4407F204602D0FFF7CFFF04E005
:101F500000F08EF8204600F020F92777280715D5E5
:101F6000300713D521686FF008000861042020773E
:101F70002068C0698007204602D0FFF7B7FF04E061
:101F800000F076F8204600F008F92777E80616D525
:101F9000F00614D521686FF0100008610820207742
:101FA0002068C06910F4407F204602D0FFF79EFFF2
:101FB00004E000F05DF8204600F0EFF82777E8072E
:101FC00008D0F00706D021686FF0010008612046B4
:101FD00000F048F9280608D5300606D521686FF0CC
:101FE000800008612046FFF72BFE680608D57006C2
:101FF00006D521686FF040000861204600F040F9E6
:10200000A8060AD5B00608D521686FF0200008613F
:102010002046BDE8F041FFF714BEBDE8F0810000A6
:1020200010B586B0044614216846FEF741FA0D4902
:102030002068884214D10C480021026842F0010255
:102040000260006800F001000590C02000900220AE
:10205000CDE90101CDE9031069460448FFF766F9AF
:1020600006B010BD000400403038024000000240BD
:10207000704770B5044690F83C0000260D460128D4
:102080000FD0012084F83C006AB1042A1DD0082A30
:102090002FD00C2A3FD00126002084F83C00304687
:1020A00070BD022070BD206800F06CFE2068816960
:1020B00041F0080181612068816921F0040181619A
:1020C000206881692A69114311E0206800F08AFEC6
:1020D0002068816941F4006181612068816921F48F
:1020E00080618161206881692A6941EA02218161F8
:1020F000D2E7206800F0ACFE2068C16941F0080119
:10210000C1612068C16921F00401C1612068C16911
:102110002A69114311E0206800F0CEFE2068C169F1
:1021200041F40061C1612068C16921F48061C1612D
:102130002068C1692A6941EA0221C161ACE710B592
:10214000040003D094F83D0010B107E0012010BD59
:10215000002084F83C00204600F01EF8022084F89D
:102160003D00211D206800F085FD012084F8460017
:1021700084F83E0084F83F0084F8400084F8410071
:1021800084F8420084F8430084F8440084F8450051
:1021900084F83D00002010BD7047704710B504461C
:1021A000022249B104290ED0082913D094F8410025
:1021B000012816D0012010BD94F83E000128F9D165
:1021C00084F83E200FE094F83F000128F2D184F813
:1021D0003F2008E094F840000128EBD184F840202B
:1021E00001E084F841200122206800F0ABFD16498F
:1021F0002068164A884201D0904203D1436C43F4D0
:10220000004343642068884213D0B0F1804F10D05F
:102210000F4988420DD00F4988420AD00E498842A2
:1022200007D0904205D00D49884202D00C4988421F
:1022300004D1816801F00701062903D0016841F04B
:1022400001010160002010BD0000014000040140B8
:102250000004004000080040000C00400040014025
:102260000018004010B500680449884205D1FFF706
:1022700061F9BDE8104001F0E5B810BD0000014073
:10228000704738B5044690F84200202801D002205B
:1022900038BD51B14AB1012020630020606320465F
:1022A00001F020F8216B012901D0012038BD2168FF
:1022B0000A684968009121680C3151E8002F42F00A
:1022C000100241E80023002BF5D138BD00680D4A0B
:1022D000904212D1052910D10B490878A5280CD1BC
:1022E00008795A2809D1A1F10A004A780270498870
:1022F00049BA818001214170817005220249034859
:10230000FFF7BFBF00100140BA0000208801002085
:1023100070470000F8B5016804460868CA684B6950
:1023200010F00F0F4FF0000559D003F0010602F432
:102330009077374365D0C10705D0D10503D5616CCF
:1023400041F001016164410705D5D90703D0616CF3
:1023500041F002016164810705D5D90703D0616CA2
:1023600041F004016164010707D502F02001314307
:1023700003D0616C41F008016164616C00293AD0BE
:10238000800604D5900602D5204600F0B9FE2068EC
:102390004069616CC0F38010090700D460B3204627
:1023A00000F079FE20684069400621D5206814308D
:1023B00050E8001F21F0400140E80012002AF5D14A
:1023C000E06BA8B172490165E06BFEF72BFE0028B7
:1023D00011D0E06B016D01B0BDE8F0400847830605
:1023E0000FD593060DD52046BDE8F84000F088BE15
:1023F0002046FFF78DFFF8BD2046FFF789FF656493
:10240000F8BD266B2023012E7ED1C6067CD5D606CC
:102410007AD508684868009048694FF0020640067F
:102420004DD5E26B106840684FF480770004000CD3
:102430003AD0A18D814237D9E085D069B8422DD0FC
:1024400020680C3050E8001F21F4807140E8001231
:10245000002AF5D12068143050E8001F21F0010156
:1024600040E80012002AF5D12068143050E8001F1F
:1024700021F0400140E80012002AF5D184F84230F2
:10248000256320680C3050E8001F21F0100140E85F
:102490000012002AF5D1E06BFEF77BFD6663A08D8C
:1024A000E18D401A81B206E0A18D8142A8D1D069A8
:1024B000B842A5D166632046FFF708FFF8BDA08D9E
:1024C000E18D401A81B2E08D0028F7D00029F5D0C7
:1024D00020680C3050E8002F22F4907240E800276A
:1024E000002FF5D12068143050E8002F22F00102AF
:1024F00040E80027002FF5D184F84230256320689A
:102500000C3050E8002F00E006E022F0100240E816
:102510000023002BF3D1CDE705062BD5150629D5D1
:1025200094F841002128C9D1A068B0F5805F01D19D
:102530002069B0B1206A411C21622168007848609E
:10254000E08C401E0004000CE084B7D12068C16814
:1025500021F08001C1602068C16841F04001C16084
:10256000F8BD206A0088C0F308004860206A801C1B
:102570002062E5E74006F3D55006F1D5CA6820464B
:1025800022F04002CA6084F8413000F0EDF8F8BD56
:102590004F2F000870B5040004D094F841000025C6
:1025A00010B106E0012070BD84F84050204600F0D4
:1025B00023F8242084F841002068C16821F40051E8
:1025C000C160204600F0FEFD2068016921F49041C1
:1025D00001612068416921F02A0141612068C168D8
:1025E00041F40051C1606564202084F8410084F802
:1025F00042006563002070BD2DE9F04186B00646BB
:1026000014216846FDF754FF30493068884259D19B
:102610002F480024016841F010010160006800F0BB
:10262000100005902A481438016841F0010101604A
:102630000068694600F0010005904FF4C06000900A
:102640000220CDE9010403200390072004902148D3
:10265000FEF76CFE214D20484FF000672860C5E969
:1026600001744FF48068C5E903486C61AC61EC61AA
:102670002C6228466C62FEF7B7FD08B1FEF7CBF876
:10268000F563AE63154D144860357830E5E8020710
:102690004020A5E81101114845F814496030AC61AB
:1026A000EC612C626C62FEF79FFD08B1FEF7B3F897
:1026B000B563002205212520AE63FEF7CDFF25205E
:1026C000FEF7BCFF06B0BDE8F0810000001001403D
:1026D000443802400000024040640240D001002023
:1026E0007047704770B5044690F84100202801D02B
:1026F000022070BD01B3FAB12162A284E2840020FD
:102700006064212384F84130A56B144BEB63A56B07
:10271000134B2B64A56B134BEB64A36B18652068FC
:102720001346A56B021D2846FEF7C8FD30B11020E8
:102730006064202084F84100012070BD21686FF0A2
:10274000400008602068143050E8001F41F080010C
:1027500040E80012002AF5D1002070BD4B3000087F
:102760008D3000085D2F000800680349884202D1BF
:1027700002490020C870704700100140B0000020DE
:102780007047FEE701460B48012909D002290AD00B
:1027900003290BD004290CD100228021FEF7BEBEF4
:1027A00000221021FAE700222021F7E70022402131
:1027B000F4E770470000024001460B48012909D0A8
:1027C00002290AD003290BD004290CD1012280212F
:1027D000FEF7A4BE01221021FAE701222021F7E72B
:1027E00001224021F4E770470000024030B525483F
:1027F0008BB02349016003210024C0E901144FF488
:102800000021C0E903414FF44011416104760125E4
:1028100045768576C57604774477FEF778FA08B171
:10282000FDF7F9FF0E2009900594CDE907454020FA
:102830000090154806944FF40071CDE90110CDE9E0
:10284000030469460F48FEF763F808B1FDF7E3FF9C
:102850000C48FEF76BFB08B1FDF7DDFF02210948CC
:10286000FDF7DBFF08B1FDF7D6FF10210548FDF7A6
:10287000D4FF002801D0FDF7CEFF0BB030BD000023
:1028800000640040D0000020E0FF01000D4808B5C2
:10289000016841F4800101600068002200F48000BA
:1028A000009005213A20FEF7D7FE3A20FEF7C6FE3B
:1028B000002205214620FEF7CFFEBDE80840462055
:1028C000FEF7BCBE3038024010B5154A002115484D
:1028D00000F030FE144C124A0021206024321348CC
:1028E00000F028FE0E4A606048320021104800F0D7
:1028F00021FE0B4AA0606C3200210E4800F01AFE47
:10290000074AE060903200210B4800F013FE044AB1
:102910002061B4320021094800F00CFE606110BD56
:10292000204D0008852B0008000000207D060008CF
:10293000B1070008212B000841060008F92A000809
:1029400070B586B014216846FDF7B2FD1648002523
:10295000016841F004010160016801F00401059182
:10296000016841F080010160016801F0800105917A
:10297000016841F00101016000680C4E00F00100A7
:102980004FF498740590002221463046FEF7C6FDAC
:102990000120CDE900400220CDE90205694630461C
:1029A000FEF7C4FC06B070BD3038024000000240A3
:1029B00010B586B000241648009401940294039444
:1029C00004944FF08041059401605321C0E9011443
:1029D00040F2CF71C0E903148461FFF77BF908B1BD
:1029E000FDF719FF4FF48050009069460848FFF743
:1029F0000FFA08B1FDF70FFF049404A904480594E9
:102A0000FFF720F9002801D0FDF705FF06B010BD43
:102A1000F800002010B58EB00024079408940994A3
:102A20000A940B941C2168460C94FDF741FD224842
:102A3000204901605321C0E9011440F2E731C0E9A7
:102A400003148461FFF746F908B1FDF7E4FE4FF483
:102A50008050079007A91848FFF7DAF908B1FDF789
:102A6000DAFE1548FFF76BFB08B1FDF7D4FE0B94B7
:102A70000BA911480C94FFF7E5F808B1FDF7CBFE60
:102A80006020CDE900040294002269460A480494BB
:102A9000FFF7EFFA08B1FDF7BEFE042269460648CB
:102AA000FFF7E7FA08B1FDF7B6FE0348FFF7B8FAFB
:102AB0000EB010BD00040040400100200C4810B5CD
:102AC0000A4901604FF4E1314160002181600C222C
:102AD000C160C0E904128161C161FFF75BFD00289C
:102AE00003D0BDE81040FDF796BE10BD00100140B8
:102AF00088010020FEE7FEE708B501F063FF0090C3
:102B00000523054A12210548FDF7E4FD0221684628
:102B100001F0FEFAF4E70000C8000020D000002019
:102B200008B501F04FFF134E134C144DDFF85080E1
:102B30000027009072B63078012801D062B613E009
:102B400094ED000A3770BCEEC00A10EE100A10F0C7
:102B5000FF0F62B608D020682860D8F806006860C9
:102B60000821064800F014FC0A21684601F0D0FA5A
:102B7000E0E70000C0000020C4000020AC4B0020B3
:102B8000B0000020012000F099FCFBE710B54FF0E9
:102B9000E020006901F008FF012803D0BDE81040E3
:102BA00001F036BC10BD000030B593B0302168464E
:102BB000FDF77EFC14210CA8FDF77AFC1E480025C9
:102BC000016841F080510160006800F08050119070
:102BD0001A48016841F4804101600068022400F451
:102BE0008040119001200090000401908001CDE907
:102BF0000640192008904FF4A870CDE9090404207C
:102C00000B906846FEF766FE08B172B6FEE70CA9A7
:102C10000F2081E831004FF4A0500F904FF4805006
:102C2000109005210CA8FEF749FD002801D072B6CE
:102C3000FEE713B030BD0000403802400070004095
:102C40000248016841F470010160704788ED00E0BE
:102C50000148FFF74CB90000900200200148FFF73F
:102C600046B90000F80000200148FFF740B9000015
:102C700040010020F0B50268274B284D284E294F0F
:102C8000294C4FF0804C984209D0604507D0A842AB
:102C900005D0B04203D0B84201D0A04204D122F006
:102CA000700E4A6842EA0E0298421BD0604519D065
:102CB000A84217D0B04215D0B84213D0A04211D0CC
:102CC0001A4DA8420ED01A4DA8420BD0194DA84259
:102CD00008D0194DA84205D0184DA84202D0184D71
:102CE000A84203D122F44075CA682A434D6922F0F4
:102CF00080022A438D68C5620D688562984201D0C2
:102D0000A04201D109690163016841F00401016039
:102D1000012141610260F0BD00000140000400405B
:102D200000080040000C0040000401400040014049
:102D3000004401400048014000180040001C0040D1
:102D40000020004010B501F01F030121046A9940E2
:102D50008C430462016A9A401143016210BD10B5B0
:102D6000846842EA032224F47F440A4322438260B7
:102D700010BD826822F070020A4342F007018160B0
:102D800070470000F0B5036A026A22F00102026295
:102D900042688469124E24F073050C682C4323F0BA
:102DA00002058B682B430D4DA84201D0B04205D1DE
:102DB00023F00807CB683B4323F00403A84201D06B
:102DC000B04205D14D6922F4407215438A692A4305
:102DD00042608461496841630362F0BD00000140C4
:102DE00000040140F0B5026A036A23F01003036295
:102DF000436884690D6824F4E64444EA05248D6838
:102E000022F0200242EA05120F4D104EA84201D0D6
:102E1000B04206D1CF6822F0800242EA071222F0C7
:102E20004002A84201D0B04207D14D6923F440636B
:102E300043EA85038D6943EA8503436084614968F9
:102E400081630262F0BD0000000001400004014007
:102E5000F0B5026A036A23F4807303624368C469AD
:102E600022F4007224F073050C68124E2C438D6816
:102E700042EA05220E4DA84201D0B04206D1CF68E9
:102E800022F4006242EA072222F48062A84201D0C2
:102E9000B04207D14D6923F4405343EA05138D69CD
:102EA00043EA05134360C4614968C1630262F0BD2F
:102EB000000001400004014030B5046A026A22F4B7
:102EC000805202624268C3690D6823F4E64343EA14
:102ED00005238D6824F4005444EA0534084DA842C3
:102EE00002D0084DA84204D14D6922F4804242EA42
:102EF00085124260C36149680164046230BD00000C
:102F0000000001400004014010B5036A046A24F087
:102F100001040462846924F0F00444EA021423F0FA
:102F20000A020A438461026210BD10B5036A046A92
:102F300024F010040462846923F0A00324F4704494
:102F400044EA023243EA01118261016210BD10B508
:102F5000806B0021C185FFF7DBF910BD70B5846B74
:102F60002068406994F84110C0F3C0100025212961
:102F700004D118B1E584204600F0B4F82068406917
:102F800094F84210C0F38010222904D118B1E585CD
:102F9000204600F080F8606C40F01000606420462D
:102FA000FFF7B6F970BD10B50146806B0968096876
:102FB0004FF00002C9052ED4C28501680C3151E8DA
:102FC000003F23F4807341E80034002CF5D1016800
:102FD000143151E8003F23F0010341E80034002C94
:102FE000F5D10168143151E8003F23F0400341E876
:102FF0000034002CF5D1202180F84210016B01290A
:1030000009D101680C3151E8003F23F0100341E879
:103010000034002CF5D14263016B012902D0FFF787
:103020005FFB10BD818DFFF751F910BD10B5806BAE
:1030300001214163016B012902D0FFF752FB10BD52
:10304000818D4908FFF742F910BD10B50146806B2C
:1030500009680968C90516D40021C18401681431C2
:1030600051E8002F22F0800241E80023002BF5D127
:1030700001680C3151E8002F42F0400241E8002382
:10308000002BF5D110BDFFF76FFB10BD10B5806BA5
:10309000FFF776FB10BD01680C3151E8002F22F4D8
:1030A000907241E80023002BF5D10168143151E8FA
:1030B000002F22F0010241E80023002BF5D1016B23
:1030C000012909D101680C3151E8002F22F01002CA
:1030D00041E80023002BF5D1202180F84210002187
:1030E0000163704701680C3151E8002F22F0C002E3
:1030F00041E80023002BF5D1202180F841107047D2
:1031000008B590F84210222901D0022008BD82683B
:103110004FF480539A4201D1016921B1816A9A42E8
:103120001BD04AB10AE00268816A5268C2F3080201
:103130000A80816A891C08E0026972B102685268DB
:1031400002F07F020A70816A491C8162C18D491EAA
:103150000904090CC18503D01BE002685268F1E73D
:103160000168CA6822F02002CA600168CA6822F4B5
:103170008072CA6001684A6922F001024A61202116
:1031800080F8421000214163026B012A03D0FFF74F
:10319000A7FA002008BD016301680C3151E8002F37
:1031A00022F0100241E80023002BF5D101680A68E3
:1031B000D20602D50A6849680091818DFFF786F82A
:1031C000E7E7000070B5044600680169E26821F491
:1031D0004051114301612169A068E26908436169B6
:1031E000114308432168CA6849F20C639A430243B9
:1031F000CA6020684169A26921F4407111434161AC
:1032000031492068884202D03049884202D1FEF715
:103210001FFB01E0FEF70CFBE26900231921642586
:103220003226B2F5004F626828D0A0FB0101930F4F
:103230009200FDF779F80146B0FBF5F06FF0180247
:10324000504301EB800006EB0010B0FBF5F000F0FE
:10325000F002B1FBF5F002EB0012B1FBF5F06FF0FC
:103260001803584301EB800006EB0010B0FBF5F0AB
:1032700000F00F0021681044886070BDA0FB0101C0
:1032800092185B41FDF750F80146B0FBF5F00201E2
:10329000B1FBF5F06FF01803584301EB800006EB2B
:1032A000C000B0FBF5F000F0F80002EB4002B1FB0B
:1032B000F5F0584301EB800006EBC000B0FBF5F0E1
:1032C00000F00700D6E700000010014000140140A4
:1032D000052202490248FEF7D4BF0000BA000020D0
:1032E0008801002038B5816204468285002013469B
:1032F0006064222284F84220E56B1F4AEA63E56B92
:103300001E4A2A64E56B1E4AEA64E26B10650A46AF
:103310002168E06B091DFDF7D1FF30B1102060641A
:10332000202084F84200012038BD206801684068F0
:103330000090206948B120680C3050E8001F41F42B
:10334000807140E80012002AF5D12068143050E85E
:10335000001F41F0010140E80012002AF5D1206869
:10336000143050E8001F41F0400140E80012002AEC
:10337000F5D1002038BD0000A72F00082D3000082F
:103380005D2F00080148FEF7C5BF0000880100203E
:1033900070B50B4D0C46E97800290FD1002C0DD0EB
:1033A000014622460748FDF736F80120E87022461C
:1033B000BDE8704003490448FFF794B970BD0000B0
:1033C000B0000020AC4B002088010020FEE7090778
:1033D000090E002804DB00F1E02080F8001470479B
:1033E00000F00F0000F1E02080F8141D704700008D
:1033F00044F62062B2FBF1F210B5012A00DA012294
:103400000F49B1F90630002B00DA5242CA808A888F
:10341000B1F9063040F2E7341A4412B28A80A2426F
:1034200001DB8C8003E0002A03DC00228A805A4200
:10343000CA800268B1F9041051630068816310BD4D
:10344000A800002010B50A4C2088B0F5FA7F0BD9EF
:10345000A078FFF797F9A07800F00100401C608089
:10346000FFF7AAF90020208080B2401C208010BD08
:10347000A8000020FEF766F8FFF796FBFFF760FA5A
:10348000FFF704FAFFF794FAFFF7C4FAFFF716FB09
:10349000FFF7ACF9FFF71CFF00210748FEF77EFE9F
:1034A00004210548FEF77AFE00F016F8FFF70CFA43
:1034B00000F024F8FEE700004001002010B5EFF313
:1034C000058111B16FF0050403E0002408B100F09C
:1034D000F9FD204610BD0000EFF3058010B16FF03C
:1034E000050070470448016811B14FF0FF30704784
:1034F00001210160002070477800002010B5EFF333
:10350000058010B16FF0050010BD08480168012961
:1035100002D04FF0FF3010BD054A002182F8141D83
:103520000221016000F07CFE002010BD7800002028
:103530000BE000E02DE9FF414FEA01034FF00005E9
:10354000EFF30581039549BB40B380271821002480
:103550004AB3166806B1344696691EB13146761EE6
:10356000382E02D21679F60703D0002004B0BDE849
:10357000F081566906B1B708D2F808C0BCF1000F57
:103580000DD0D5685C2D18D312693AB136B18DE8EB
:1035900006103A46214601F0DCF903900DE0D668AA
:1035A0005EB912694AB903AACDE90012BAB221463E
:1035B00001F0A2F9012800D003950398D6E7000096
:1035C0002DE9F041134C0F460546E6682068001DC2
:1035D00000F044FC681C07D137B12168BDE8F04118
:1035E0000D48091D00F08ABC20683544B54245608D
:1035F000216805D2A06BBDE8F041091D00F066BC52
:10360000606B091D00F062FCA06A854200D2A562D1
:10361000BDE8F08128000020C80700202DE9F04116
:10362000054600F077FC2D4CA068401CA060206887
:103630002B4F10B1606930B32BE02560A0680128E2
:1036400027D1002606EB860007EB800000F030FC57
:10365000761C382EF6D3234800F02AFC214814307B
:1036600000F026FC1F48283000F022FC1D483C30AA
:1036700000F01EFC1B48503000F01AFC1948606333
:103680001430A06305E02068E96AC06A884200D867
:103690002560606A401C60626864E86A216988424B
:1036A00000D9206100EB800007EB8000291D00F0AD
:1036B00025FC00F04FFC606900280CD02068E96A06
:1036C000C06A884207D208494FF080500860BFF3B3
:1036D0004F8FBFF36F8FBDE8F081000028000020FE
:1036E000180300207807002004ED00E038B500F052
:1036F00011FC104C2068C8B90F4800F0D9FB0E48E7
:10370000143000F0D5FB0C48E060143020610A4B07
:103710000020F03B009003F1500210210A2000F03D
:103720008DFE206010B105A100F096FCBDE8384088
:1037300000F010BC64000020CC080020546D7251D1
:103740000000000030B4026C0B46002A0BD0C168A8
:103750001144C1608468A14201D30168C16030BCDA
:103760001846FCF758BE30BC70472DE9F041856B18
:10377000174604460026026C82B1C7B1E068FCF728
:103780004AFEE168206C091AE1602268914202D287
:10379000A168081AE060022F16D017E02068A8B9C7
:1037A000A06801F079F906460020A0600EE060688C
:1037B000FCF731FE216C606808446060A1688842B3
:1037C00004D32068606001E005B16D1E6D1CA56327
:1037D0003046BDE8F08110B5044690F8590058B164
:1037E00001280CD002280FD0502080F31188BFF39D
:1037F0004F8FBFF36F8FFEE7206B00F0BFFB2046BB
:10380000BDE8104000F0BABB10BD000010484FF4F6
:103810007051420706D0C01D0D4920F00700411A23
:10382000C1F570510B4A00230144C2E90003083975
:10383000183A21F0070111604B600B600B1AC0E9C8
:10384000001393604FF000405360506170470000D8
:10385000AC0F002094000020144E154CA6F29C479B
:103860004FF08058DFF84C9012E000BF00F052FBA0
:10387000F068C568281D00F0F1FAA068401EA0603D
:103880006068401E606000F065FB2846FFF7A3FFFC
:1038900060680028EAD138680128F9D9C9F80080A1
:1038A000BFF34F8FBFF36F8FF2E70000B407002024
:1038B0002800002004ED00E070B51D46049C51B1C5
:1038C000C4F80020C4E90F010121204600F0EAFD00
:1038D00084F84C5070BD2460F4E700002DE9F05FDF
:1038E0008846DDE90B941546834691009A460A9E68
:1038F000A522206BFCF7D4FD6FF00301206B01EBD8
:103900008501084420F00707780707D0502080F38E
:103910001188BFF34F8FBFF36F8FFEE70025B8F11B
:10392000000F0FD05FF00000221818F8001082F886
:10393000341018F8001011B1401C1028F4D384F88A
:10394000435001E084F83450382E00D33726E66225
:10395000C4E91365201D00F0B6FA04F1180000F068
:10396000B2FA2461C6F138006462A061656584F82A
:10397000585052465946384600F05AFA2060B9F17C
:10398000000F01D0C9F80040BDE8F09F30B51149E3
:1039900000E011460A688242FBD34B685C188442FF
:1039A00003D1406818444860084643681C18944294
:1039B00009D1084C183C2468A24209D052681A4424
:1039C00042600A6812680260814200D0086030BD1F
:1039D0000460F9E79400002070B5002441600B4DAD
:1039E0000061914206D8D11A8269914206D2011D26
:1039F000286907E09A4203D2994201D3012403E0E7
:103A0000011DE86800F062FA204670BD64000020E5
:103A100010B5044600F07EFAA06B28B15FF00004F8
:103A200000F098FA204610BD0124F9E730B589B0BE
:103A30003C4D6EE00498002806DADDE90601059A9F
:103A400090470498002864DB069C606910B1201D33
:103A500000F004FA03A800F0D7F8024604980A28F8
:103A600057D2DFE800F00505052D334A05052D3353
:103A700094F8280040F0010084F828000599A06916
:103A8000059B01442046FFF7A7FF68B3216A204643
:103A9000884794F8280040073BD5002000900598FF
:103AA000A169002342181946204601F0FFF8D8B951
:103AB000502080F31188BFF34F8FBFF36F8FFEE765
:103AC00014F8280F20F00100207022E094F828005C
:103AD00040F0010084F828000598A06128B1811801
:103AE00013462046FFF778FF13E0502080F311883B
:103AF000BFF34F8FBFF36F8FFEE794F82800810765
:103B000003D4204600F03AFA03E020F0010084F8E4
:103B10002800002204A9286800F018FE002889D196
:103B200009B030BD640000202DE9FC410F46054678
:103B300000F0BAFB01A800F067F80446019818B13C
:103B400001F022F8BDE8FC81254EAFB13069006874
:103B5000D0B30027291B3A46306800F091FA01F0F3
:103B600013F80028EED11F494FF080500860BFF3D2
:103B70004F8FBFF36F8FE5E7A542EBD801F004F854
:103B8000F0682746C068C468201D00F067F994F803
:103B90002800410719D5A0692B4641193A4620460D
:103BA000FFF71AFFA8B100200346014600902A46FD
:103BB000204601F07BF860B9502080F31188BFF3F4
:103BC0004F8FBFF36F8FFEE707E020F0010084F80E
:103BD0002800216A20468847B4E70127BAE7000099
:103BE0006400002004ED00E00648416B096829B13B
:103BF000416BC968C9684968816270474FF0FF31FD
:103C0000FAE700002800002070B5054600F0DAFE53
:103C1000064E0446B068844203D200F009F8012041
:103C200000E0002028602046B46070BD64000020E1
:103C3000F8B5194D20E0C068C4680668201D00F082
:103C40000DF9216A2046884794F82800400713D5CB
:103C5000A0693044B04206D924616060211DE86843
:103C600000F034F908E00020034601460090324697
:103C7000204601F01BF838B1E86801680029DAD164
:103C80002969C5E90310F8BD502080F31188BFF3FE
:103C90004F8FBFF36F8FFEE7640000200848406835
:103CA000401C4FF0500080F3118804D0BFF34F8FB9
:103CB000BFF36F8FFEE7BFF34F8FBFF36F8FFEE74A
:103CC0009C000020074CE068016841B1C0680021F9
:103CD000D0F80000FFF728FFFFF7A8FEF3E7012167
:103CE0000020F7E7640000202DE9F041044600F0D1
:103CF00011F994F9455004F1240609E0606A48B1CD
:103D0000304600F009FF08B100F050FA6D1E6DB2A8
:103D1000002DF3DC4FF0FF3684F8456000F01AF90F
:103D200000F0F8F894F9445004F1100709E0206914
:103D300048B1384600F0F0FE08B100F037FA6D1EC9
:103D40006DB2002DF3DC84F84460BDE8F04100F072
:103D500001B900002DE9F0410546002700F0A4FA62
:103D6000324E306808B9FFF751FD706905424ED1F7
:103D7000C5B3083568070ED005F00700C0F108008C
:103D80000544680707D0502080F31188BFF34F8F98
:103D9000BFF36F8FFEE72DB37068854237D8234895
:103DA000183001460C6801E020460C466168A942C3
:103DB00002D221680029F7D131688C4227D00768E8
:103DC0002168016060680837411B10290FD960190C
:103DD000420708D0502080F31188BFF34F8FBFF304
:103DE0006F8FFEE713E041606560FFF7CFFD61680C
:103DF0007068401A7060B268904200D2B06070691A
:103E000001430020C4E90001F068401CF06000F0AC
:103E1000BBFE780707D0502080F31188BFF34F8F87
:103E2000BFF36F8FFEE73846BDE8F0817C000020CD
:103E300010B5031F4FF080741C601B1F21F001019F
:103E40001960191F044B0B6014390A60091F6FF0C9
:103E5000020244380A6010BD9D3C0008D0E90132DE
:103E600001699A60D0E901235A604A68824201D10F
:103E700082684A60002202610868401E0860086883
:103E800070470000034B036003F15C000860802072
:103E900010607047F4080020044B036003F15C00DD
:103EA00008604FF48070106070470000500B0020D5
:103EB00000F108014FF0FF32C0E90112C160016159
:103EC00000210160704700210161704730B50B6827
:103ED0005A1C02D000F1080202E0026904E0224606
:103EE000546825689D42FAD953684B6099608A608E
:103EF000516008610168491C016030BD42684A6038
:103F000093688B6093685960916008610168491CEF
:103F100001607047502080F31188BFF34F8FBFF3CB
:103F20006F8F0A494868401C486001280CD1084836
:103F3000006810F0FF0F07D0502080F31188BFF306
:103F40004F8FBFF36F8FFEE7704700009C0000208B
:103F500004ED00E00849486828B1401E486001D1DE
:103F600080F311887047502080F31188BFF34F8F82
:103F7000BFF36F8FFEE700009C00002070B50028A3
:103F80002AD0164DA0F1080460686969084207D17B
:103F9000502080F31188BFF34F8FBFF36F8FFEE780
:103FA00022683AB1502080F31188BFF34F8FBFF3DE
:103FB0006F8FFEE78843606000F076F9606869689B
:103FC000084468602046FFF7E1FC2869401C28612E
:103FD000BDE8704000F0D8BD70BD00007C0000203E
:103FE0004FF0E02000210161816105494FF47A72B0
:103FF0000968B1FBF2F1491E416107210161704777
:104000002400002010B5FCF76BF9114910280ED3DD
:1040100000F1E02090F8F0030A78904207D2502097
:1040200080F31188BFF34F8FBFF36F8FFEE709480E
:104030000068896800F4E060884207D9502080F366
:104040001188BFF34F8FBFF36F8FFEE710BD0000E5
:104050009C0000200CED00E010B5084B002200BFD2
:1040600053F832401CB1521C082AF9D310BD43F852
:10407000321003EBC201486010BD0000D8020020DE
:1040800070B515460E460446FFF744FF94F94410F8
:104090000020491C01D184F8440094F94510491CC2
:1040A00001D184F84500FFF755FFA06B28B92A46D7
:1040B000314604F1240000F097F82046BDE8704036
:1040C000FFF712BE10B5020014D00F48006B38B1D4
:1040D000502080F31188BFF34F8FBFF36F8FFEE73F
:1040E00000F0E2F800211046FFF76AFA00F04CFDFC
:1040F000002807D105494FF080500860BFF34F8F6B
:10410000BFF36F8F10BD00002800002004ED00E019
:1041100070B50D4604000BD095B11E4A106BB8B1B6
:10412000502080F31188BFF34F8FBFF36F8FFEE7EE
:10413000502080F31188BFF34F8FBFF36F8FFEE7DE
:10414000502080F31188BFF34F8FBFF36F8FFEE7CE
:1041500000F0AAF8D26823685919934204D98B4217
:104160000AD9914202D807E08B42FAD9881A216015
:104170000021FFF725FA00E0216000F005FD00288E
:1041800007D105494FF080500860BFF34F8FBFF350
:104190006F8F70BD2800002004ED00E002490A6A1C
:1041A0000260C96841607047280000200149012071
:1041B000C86170472800002010B50C4650B109496D
:1041C00009681831FFF782FE2046BDE81040012142
:1041D000FFF7F6B9502080F31188BFF34F8FBFF37C
:1041E0006F8FFEE72800002070B514460D4668B1B9
:1041F0000A4909681831FFF781FE0CB14FF0FF350D
:1042000021462846BDE87040FFF7DAB9502080F318
:104210001188BFF34F8FBFF36F8FFEE72800002098
:1042200030B587B00024039405AA04A903A8049418
:10423000FFF728FEDDE903010094CDE9011000231A
:1042400015A11748059A00F084FB164D0028E86276
:104250001FD000F0FBFC012809D0401C19D15020D0
:1042600080F31188BFF34F8FBFF36F8FFEE75020AD
:1042700080F31188BFF34F8FBFF36F8F4FF0FF3084
:10428000A86201206861EC6007B0BDE8304000F032
:1042900045B807B030BD000049444C45000000005F
:1042A00059380008280000200248016B491C0163AE
:1042B0007047000028000020164810B5016B11B1AE
:1042C0000121C16110BD0021C1610169124A01E0F3
:1042D000B9B1491E01EB810352F82330002BF7D00E
:1042E00001EB810302EB830202F1080453685B686F
:1042F0005360A34201D15B685360DA6802600161D8
:1043000010BD502080F31188BFF34F8FBFF36F8F24
:10431000FEE7000028000020180300201CB53748E5
:104320000168374A914207D1502080F31188BFF3CA
:104330004F8FBFF36F8FFEE700683149491E8842F7
:1043400007D1502080F31188BFF34F8FBFF36F8FD9
:10435000FEE72C4908780190FF20087008788DF856
:1043600000009DF800009DF8002000F0F000904251
:1043700007D0502080F31188BFF34F8FBFF36F8FAA
:10438000FEE79DF80000204C00F050002070072050
:10439000A06005E09DF8002052008DF80020401E2E
:1043A0009DF800201206F5D4A060032807D0502005
:1043B00080F31188BFF34F8FBFF36F8FFEE74FF489
:1043C0004070A060019808700C482030016841F4EA
:1043D00070010160016841F070410160FFF700FE6B
:1043E00000206060FBF744FF0848016841F040414D
:1043F0000160FBF729FF00201CBD000000ED00E07C
:1044000071C20F4100E400E09C00002034EF00E0A6
:1044100010B5502080F31188BFF34F8FBFF36F8F1B
:1044200000F0D6FA18B104494FF08050086000201F
:1044300080F3118810BD000004ED00E038B5049D44
:1044400018B153B1CAB181B120E0502080F3118876
:10445000BFF34F8FBFF36F8FFEE7502080F31188BB
:10446000BFF34F8FBFF36F8FFEE7502080F31188AB
:10447000BFF34F8FBFF36F8FFEE739B1502080F34A
:104480001188BFF34F8FBFF36F8FFEE750241C4698
:10449000012384F846302B460094FFF70DFA20469E
:1044A00038BD000070B50D46040025D0FFF732FD81
:1044B000D4E90F20216802FB0011A1600021A16353
:1044C000216861600A46D4E90F01401E00FB01210A
:1044D000E16021464FF0FF3001F8440F487004F1CD
:1044E00010008DB1FFF7E4FC04F12400FFF7E0FCBD
:1044F000FFF730FD012070BD502080F31188BFF31D
:104500004F8FBFF36F8FFEE721690029F0D000F0D5
:1045100003FB0028ECD004494FF080500860BFF343
:104520004F8FBFF36F8FE3E704ED00E02DE9FF4706
:1045300082B01D468A464FF00008040003D0BAF14D
:10454000000F08D011E0502080F31188BFF34F8F87
:10455000BFF36F8FFEE7206C38B1502080F31188D5
:10456000BFF34F8FBFF36F8FFEE7022D0AD1E06BD1
:10457000012807D0502080F31188BFF34F8FBFF37D
:104580006F8FFEE700F010FA3F4F4FF000094FF039
:10459000805648B9049838B1502080F31188BFF391
:1045A0004F8FBFF36F8FFEE7FFF7B4FCA06BE16B9B
:1045B000884207D3022D05D00498D0B1B8F1000F7E
:1045C0001AD01EE02A4651462046FFF7CEF8616A0F
:1045D00019B104F1240000F09FFA20B13E60BFF34E
:1045E0004F8FBFF36F8FFFF7B5FC012006B0BDE81A
:1045F000F087FFF7AFFC22E06846FFF7CFFD4FF0F2
:104600000108FFF7A7FCFFF74FFEFFF783FC94F9C3
:104610004400401C01D184F8449094F94500401CAA
:1046200001D184F84590FFF795FC04A9684600F095
:1046300029F930B12046FFF757FB00F0A5FA00201A
:10464000D4E7FFF767FCA06BE16B884213D1FFF75B
:1046500081FC04F110000499FFF7AEFD2046FFF73E
:1046600043FB00F091FA00289ED13E60BFF34F8FCC
:10467000BFF36F8F98E7FFF76DFC2046FFF734FB21
:1046800000F082FA90E7000004ED00E02DE9F04729
:104690001F4690468946040003D0B9F1000F08D0A8
:1046A00011E0502080F31188BFF34F8FBFF36F8F5D
:1046B000FEE7206C38B1502080F31188BFF34F8F94
:1046C000BFF36F8FFEE7022F0AD1E06B012807D0FE
:1046D000502080F31188BFF34F8FBFF36F8FFEE739
:1046E000FFF790FC5020EFF3118680F31188BFF3A1
:1046F0004F8FBFF36F8FA06BE16B884206D3022F01
:1047000004D0002086F31188BDE8F08794F9455065
:10471000A06B3A4649462046FFF727F8681C04D0AC
:104720006D1C84F845500120ECE7606A0028FAD03F
:1047300004F1240000F0F0F90028F4D0B8F1000FE3
:10474000F1D00121C8F80010EDE700002DE9F7478E
:10475000002683B08A46040003D0BAF1000F08D0C7
:1047600011E0502080F31188BFF34F8FBFF36F8F9C
:10477000FEE7206C38B1502080F31188BFF34F8FD3
:10478000BFF36F8FFEE700F00FF9DFF8F4804FF012
:1047900000094FF0805748B9059838B1502080F390
:1047A0001188BFF34F8FBFF36F8FFEE7FFF7B2FBA8
:1047B000A56BC5B151462046FEF7C4FF6D1EA5632B
:1047C000206950B104F1100000F0A6F928B1C8F832
:1047D0000070BFF34F8FBFF36F8FFFF7BBFB01205C
:1047E00006B0BDE8F087059808B11EB106E0FFF7F6
:1047F000B1FB27E06846FFF7D1FC0126FFF7AAFBD3
:10480000FFF752FDFFF786FB94F94400401C01D1ED
:1048100084F8449094F94500401C01D184F84590F7
:10482000FFF798FB05A9684600F02CF80028204601
:104830000AD0FFF759FA00F0A7F92046FFF7E8F889
:104840000028B3D00020CBE7FFF7E2F890B104F1E5
:1048500024000599FFF7B0FC2046FFF745FA00F069
:1048600093F90028A2D1C8F80070BFF34F8FBFF3AF
:104870006F8F9BE72046FFF737FA00F085F995E741
:1048800004ED00E02DE9F0410C46050011D0C4B163
:10489000FFF740FB174BDA686E682068911B471CD6
:1048A00017D02F681B6A9F4219D0964217D801244F
:1048B00010E0502080F31188BFF34F8FBFF36F8F4C
:1048C000FEE7502080F31188BFF34F8FBFF36F8F47
:1048D000FEE70024FFF73EFB2046BDE8F08188425A
:1048E00005D9401A20602846FFF758FCF1E7002060
:1048F0002060DCE7280000202DE9FF5F8346DDE92A
:104900000E87994616468A469000FFF723FA05005F
:104910001CD05C20FFF71EFA040014D00020256391
:1049200084F85900CDE90240CDE900874B46324674
:1049300051465846FEF7D2FF2046FEF76FFE012093
:1049400004B0BDE8F09F2846FFF718FB4FF0FF309A
:10495000F6E7F0B585B0DDE90B640A9DA6B1DCB1E0
:104960005C2700972663022684F85960002604AF6E
:10497000CDE90246CDE90057FEF7B0FF2046FEF72D
:104980004DFE049805B0F0BD502080F31188BFF3B0
:104990004F8FBFF36F8FFEE7502080F31188BFF376
:1049A0004F8FBFF36F8FFEE70548416919B1006B68
:1049B00018B10020704701207047022070470000A6
:1049C000280000200148C06870470000280000202F
:1049D0002DE9F0412E4C0027206B28B1A069401C26
:1049E000A0613846BDE8F081E668761CE66013D128
:1049F000606B006838B1502080F31188BFF34F8F8F
:104A0000BFF36F8FFEE7606BA16B6163A063206AE9
:104A1000401C2062FFF7E8F8A06ADFF87880864241
:104A200009D3606B0068A0B1606BC068C568686836
:104A3000864211D2A0622068C06A00EB800158F85B
:104A40002100012800D90127E0690028C9D00127E9
:104A5000C7E74FF0FF30EDE7281DFFF7FFF9A86A21
:104A600018B105F11800FFF7F9F9E86A21698842E1
:104A700000D9206100EB800108EB8100291DFFF7C0
:104A80003DFAE86A2168C96A8842CAD30127C8E7A3
:104A9000280000201803002070B504004FF000012A
:104AA00033D01B4D2868844207D0502080F31188F2
:104AB000BFF34F8FBFF36F8FFEE7206D38B1401EFD
:104AC0002065E36CE26A9A421FD040B11DE050209D
:104AD00080F31188BFF34F8FBFF36F8FFEE7201D68
:104AE000FFF7BCF9E06CE062C0F13800A061E06A59
:104AF0002969884200D92861064900EB800001EB52
:104B00008000211DFFF7FAF90121084670BD000061
:104B1000280000201803002070B5C068C46854B194
:104B200004F118000646FFF799F9144D286B50B1AF
:104B30003146134815E0502080F31188BFF34F8FA2
:104B4000BFF36F8FFEE7201DFFF788F9E06A296940
:104B5000884200D928610B4900EB800001EB8000FE
:104B6000211DFFF7CBF9E06A2968C96A884202D99A
:104B70000120E86170BD002070BD00002800002009
:104B8000A0070020180300202DE9F0472C4D002439
:104B90002746286B38B1FFF7BDF9286B401E286304
:104BA000286B40B146E0502080F31188BFF34F8F4F
:104BB000BFF36F8FFEE7A968224E0120D1B3A6F59F
:104BC000916980463068E0B1F068C46804F118006B
:104BD000FFF744F9201DFFF741F9E06A296988428F
:104BE00000D9286100EB800109EB8100211DFFF74E
:104BF00085F9E06A2968C96A8842E3D3C5F81C8050
:104C0000E0E70CB1FEF7F0FFAC694CB14FEA0806E3
:104C1000FFF7DEFE00B1EE61641EF9D10020A8614D
:104C2000E86938B10849012738070860BFF34F8F9A
:104C3000BFF36F8FFFF78EF93846BDE8F0870000AD
:104C400028000020A007002004ED00E010B586B089
:104C5000FEF74CFD114C2068B8B100200390049081
:104C600005AA04A903A8FFF717F9DDE9032102202B
:104C70008DE8070000230AA10B48059AFFF769FE9B
:104C8000606010B106B0012010BD502080F3118883
:104C9000BFF34F8FBFF36F8FFEE70000640000206B
:104CA000546D722053766300C53C00082DE9FF4126
:104CB0001E46134602000A9D4FF0000016D0144C09
:104CC0002768002F0FD0CDE900130292062917DACA
:104CD000FFF76AFE02284FF000030FD0002269465A
:104CE0002068FFF723FC04B0BDE8F081502080F37A
:104CF0001188BFF34F8FBFF36F8FFEE72A46EEE7B1
:104D00000023324669463846FFF7C0FCEBE7000057
:104D1000640000204FF04070E1EE100A7047000080
:104D2000504E0008000000000000000000000000DD
:104D30000000000000020000180000000000000059
:104D400000000000184E00080000000000000000F5
:104D50000000000000000000000200000800000049
:104D60000000000000000000444E000800000000A9
:104D70000000000000000000000000000002000031
:104D80000800000000000000000000002C4E000899
:104D90000000000000000000000000000000000013
:104DA00000020000080000000000000000000000F9
:104DB000204E00080000000000000000000000007D
:104DC00000000000000200000800000000000000D9
:104DD00000000000384E0008000000000000000045
:104DE00000000000000000000002000008000000B9
:104DF000000000000000000000061016000610165B
:104E0000000000000000000001020304060708097A
:104E100000000000010203044C45445441534B0080
:104E2000424545525441534B00000000464C4F410F
:104E3000545441534B0000004E6F69736554415305
:104E40004B000000554152545461736B0000000048
:104E500064656661756C745461736B007C4E000808
:104E600000000020D0000000C40100084C4F0008E2
:104E7000D000002050510000E001000800000000B8
:104E80000000000000000000000000000000000022
:104E90000000000001000000100000000000000001
:104EA0000024F400000000000000000000000000EA
:104EB00000000000000000000000000000000000F2
:104EC00000000000000000000000000000000000E2
:104ED00000000000000000000000000000000000D2
:104EE00000000000000000000000000000000000C2
:104EF00000000000000000000000000000000000B2
:104F000000000000000000000000000000000000A1
:104F1000000000000000000000000000AAAAAAAAE9
:104F2000000000000000010000000100000000007F
:104F300000000000807F0000000000000000000072
:0C4F400000000000000000000000000065
:040000050800018965
:00000001FF
