:020000040800F2
:10000000E008002029020008DD2B0008192800085C
:10001000D92B000821040008BD31000800000000B1
:10002000000000000000000000000000E52B0008B8
:100030009D04000800000000E12B0008E92B0008E7
:10004000430200084302000843020008430200087C
:10005000430200084302000843020008430200086C
:10006000430200084302000843020008430200085C
:10007000430200084302000843020008430200084C
:10008000430200084302000843020008430200083C
:100090002504000835040008430200084302000854
:1000A000430200084302000843020008430200081C
:1000B000B12C0008C12C00084302000843020008CC
:1000C00043020008430200084302000843020008FC
:1000D00043020008AD310008430200084302000853
:1000E00043020008430200084302000843020008DC
:1000F00043020008430200084302000843020008CC
:1001000043020008430200084302000843020008BB
:1001100043020008430200084302000843020008AB
:1001200043020008430200087D040008430200085F
:100130004302000800000000000000004302000825
:10014000430200084302000843020008430200087B
:1001500043020008430200088D040008430200081F
:10016000430200084302000843020008430200085B
:1001700043020008430200080000000000000000E5
:10018000430200084302000800F002F800F03CF8C7
:100190000AA090E8000C82448344AAF10107DA45E2
:1001A00001D100F031F8AFF2090EBAE80F0013F0F8
:1001B000010F18BFFB1A43F0010318470432000077
:1001C00024320000103A24BF78C878C1FAD8520708
:1001D00024BF30C830C144BF04680C6070470000C1
:1001E0000023002400250026103A28BF78C1FBD840
:1001F000520728BF30C148BF0B6070471FB503F0DE
:10020000BDF81FBD10B510BD00F0D0F81146FFF7C6
:10021000F5FF03F045F800F0EEF803B4FFF7F2FF46
:1002200003BC00F0F5F80000094880470948004782
:10023000FEE7FEE7FEE7FEE7FEE7FEE7FEE7FEE796
:10024000FEE7FEE704480549054A064B70470000F3
:100250009D2C000889010008E0020020E008002031
:10026000E0040020E004002053EA020C00F0698062
:100270002DE9F04B4FF00006002B1FBFB3FA83F5BA
:1002800003FA05F424FA05F65E4012BF1643B2FAEB
:1002900082F502FA05F4C5F120051EBF22FA05FC1D
:1002A00044EA0C04203556EA044C4FEA144418BFC3
:1002B000641C4FF000084FF00009904271EB030CF2
:1002C00039D3002919BFB1FA81F701FA07F6B0FA5C
:1002D00080F700FA07F6C7F120071EBF20FA07FCD7
:1002E00046EA0C062037B6FBF4FCA7EB0507103FE7
:1002F00007F01F0BCBF120062CFA06F60CFA0BFBCD
:1003000044BFB3460026202FA4BF5E464FF0000B2B
:100310005BEA060C08BF4FF0010B19EB0B0948EB29
:100320000608ABFB027C06FB02CC0BFB03CCC01B1C
:1003300071EB0C01C1E70B46024641464846BDE859
:10034000F08B13B5084318BF4FF0FF300146AFF3F1
:100350000080BDE81C4070474FF0000200B5134616
:1003600094469646203922BFA0E80C50A0E80C50D5
:10037000B1F12001BFF4F7AF090728BFA0E80C5086
:1003800048BF0CC05DF804EB890028BF40F8042B7F
:1003900008BF704748BF20F8022B11F0804F18BFEC
:1003A00000F8012B7047704770477047754600F0A2
:1003B0002BF8AE4605006946534620F007008546F7
:1003C00018B020B5FFF73EFFBDE820404FF0000613
:1003D0004FF000074FF000084FF0000BAC46ACE8C0
:1003E000C009ACE8C009ACE8C009ACE8C00921F01C
:1003F00007018D46704710B50446AFF300802046D4
:10040000BDE81040FFF709BF0048704720000020FA
:1004100001491820ABBEFEE726000200704700002D
:10042000FEE7000080B540F2A800C2F2000000F034
:10043000B1F980BD80B540F2A800C2F2000000F022
:10044000A9F980BDB0B588B0054600201446CDE9B5
:1004500002010421CDE9041006938DF81C0000BFB1
:10046000284600F083F90028FAD002A901AB2846FB
:10047000224600F02DF808B0B0BD000080B540F273
:10048000D000C2F2000000F061FC80BD80B540F2F7
:100490003010C2F2000000F059FC80BD704700002F
:1004A00072B600BFFEE7000090F82020013A012A52
:1004B00004D8006800F11402002004E000F12402D6
:1004C00001204FF480211368194311607047000028
:1004D00010B590F820E0D0F800C0AEF1010EBEF1EA
:1004E000010FDCF808E00ED81EF0E05F11D0CEF36B
:1004F000016E012000FA0EF018608B687BB148682D
:1005000043EAC0030DE000F1240101204FF48022F2
:1005100023E000F1240101204FF400121DE00868DF
:100520004305D1E9030403430CEB0E10C0F88031FE
:10053000C0F88441097D012905D100F5C2710B681D
:1005400043F480730B605168C0F88C11126800F599
:10055000C071C0F88821002001220B681A430A608C
:1005600010BD0000B0B590F82020013A012A2FD824
:1005700046F20060C4F20000026842F0010202602C
:10058000026822F47C520260D1F814E0CC694A6A15
:100590000368012C43EA022202600EF01F024FF0B2
:1005A000010303FA02F2C3696FEA020C23EA0203B1
:1005B000C36113D02CBBC36803EA0C03C360CB68D0
:1005C0008C8844EA034300EBCE0423640B4611E01D
:1005D000416A41F4802141620120B0BDC3681343E8
:1005E000C3600B688C8844EA034300EBCE042364A9
:1005F00001F10C038C681B8843EA044300EBCE0432
:10060000636443688D6943EA0204D1F810E0096A23
:10061000002D08BF03EA0C0444604369BEF1000FDB
:1006200043EA020408BF03EA0C040129446102D131
:10063000C1691143C161016821F00101016000201D
:10064000B0BD00007047000010B590F82040013C9C
:10065000012C0AD8046871B12469A4070ED100F1F5
:10066000240101204FF4001276E000F12401012062
:100670004FF4802270E0E468A40771D0046804EBB2
:10068000011CDCF8B0410CF5D87E14F00404946031
:10069000DCF8B04119BFE4085460640D1460DEF862
:1006A00000400CF5DA7E04F00204D460DCF8B441BA
:1006B00024075ABFDEF8004004F00F040824146138
:1006C000DEF800400029C4F307249461DEF80040FE
:1006D0004FEA14445461DCF8B8211A70026802EB46
:1006E0000112D2F8B8214FEA12225A70026802EBC6
:1006F0000112D2F8B8214FEA12429A70026802EB56
:100700000112D2F8B8214FEA1262DA70026802EBE5
:100710000112D2F8BC211A71026802EB0112D2F860
:10072000BC214FEA12225A71026802EB0112D2F880
:10073000BC214FEA12429A71026802EB0112D2F810
:10074000BC214FEA1262DA71006814BF00F1100197
:1007500000F10C01002020220B681A430A6010BD32
:1007600000F1240101204FF40012F5E790F8201069
:100770000139012984BF00207047006881688268C0
:100780008068C1F38061C2F3C0621144C0F300709D
:10079000084470472DE9F04F81B00446006846696F
:1007A000D0F804908768D0F80CB0D0F810A0D0F83A
:1007B0001880F10703D1002530071CD423E0F90786
:1007C00010D00121BA07816009D4780700F1AA800E
:1007D000380700F1B080204600F058FA02E02046C9
:1007E00000F056FA0025F80500F18480F80300F1C6
:1007F000AA80300707D51BF0100004D0206845F40C
:1008000000751021C160700708D51BF0080005D0E5
:1008100020680821C160204600F09EF9B00706D587
:100820002068C068800702D0204600F097F9700663
:1008300007D51AF0100004D0206845F48065102117
:100840000161B00608D51AF0080005D0206808211B
:100850000161204600F0E6F9F00606D5206800693F
:10086000800702D0204600F0DFF9B00308D519F068
:10087000100005D0206810214160204600F0D6F914
:10088000F00308D519F0080005D020680821416060
:10089000204600F007FA300440F18F805FEA49708B
:1008A00040F1888006F4807008EA102028435FEA4F
:1008B0008871014648BF41F00201B20558BF0146A8
:1008C0005FEA48700D4648BF45F00405700558BF03
:1008D0000D4630056ED518F070006BD01038000949
:1008E000052862D8DFE800F0035356595C5F45F0F5
:1008F00008055AE020684FF48071BA0581600AD477
:10090000780512D4380519D4204600F0C3F9F8034D
:100910007FF56FAF17E0204600F0BEF9F8037FF5D2
:1009200068AF10E04FF400655DE705F50055F8038A
:100930007FF55FAF07E04FF4805554E705F580453C
:10094000F8037FF556AF20684FF48031BA03816019
:100950000AD478030FD4380313D4204600F09EF94C
:1009600030073FF548AF4EE7204600F099F93007D1
:100970003FF541AF47E705F5004530073FF53BAF91
:1009800041E705F5803530073FF535AF3BE745F0EA
:1009900010050AE045F0200507E045F0400504E0B9
:1009A00045F0800501E045F480752068816921F0FB
:1009B000700181612068042141602DB1606A284383
:1009C00060622046FFF73EFE01B0BDE8F08F0000F8
:1009D000B0B5C8B1044690F8200010B9204600F028
:1009E00071F82068016841F00101016000F04CFCE1
:1009F000054600BF20684168C90707D100F044FCE4
:100A0000401B0B28F6D312E00120B0BD016821F095
:100A10000201016000F038FC054600BF2068416813
:100A200089070DD500F030FC401B0B28F6D3606A17
:100A3000052140F400306062012084F82010B0BD30
:100A4000217E0268012922F0800208BF8032026004
:100A5000617E0268012922F0400208BF4032026034
:100A6000A17E0268012922F0200208BF2032026024
:100A7000E17E0268012922F0100218BF10320260E4
:100A8000217F0268012922F0080208BF08320260B3
:100A9000617F0268012922F0040208BF043202606B
:100AA000D4E901C2D4E9033561691A432A431143E9
:100AB000ACF101021143C16100200121606284F8A0
:100AC0002010B0BD80B586B046F200410068C4F287
:100AD0000001002288420592CDE903220292019290
:100AE00001D006B080BD43F630000092C4F202008F
:100AF000036943F000730361036903F0007300931B
:100B0000009B0092036843F001030360006800F05B
:100B10000100009000984FF4C05001900220CDE9F0
:100B20000202032004900920059001F5CE3001A9AE
:100B300000F0D4FA14200521002200F029FC142032
:100B400000F016FC15200521002200F021FC1520E4
:100B500000F00EFC06B080BD70470000B0B5016823
:100B600046F20042C4F20002914200D0B0BD40F211
:100B7000880540F28004C2F20005C2F200040021A0
:100B80002A462346FFF760FD0028EFD1286840F28F
:100B90000121884205D140F2A500C2F200000121E6
:100BA0000170686840F20111C0F2021188420FD151
:100BB000A8680428DAD1207840F2A501C2F2000129
:100BC000087040F27520C2F2000001210170B0BD32
:100BD00001F580718842C9D1A868042818BFB0BD4A
:100BE00040F26921C2F20001012008702178012938
:100BF0000BD140F26821C2F20001087040F20C00F3
:100C0000C2F2000031218170B0BD40F26820C2F212
:100C100000000021017040F20C00C2F200003021FF
:100C20008170B0BD70470000704700007047000041
:100C3000B0B5044690F8200001281DD1022084F8A8
:100C400020002068016821F00101016000F01CFB18
:100C5000054600BF20684068C00713D000F014FBB1
:100C6000401B0B28F6D3606A40F400306062052018
:100C700084F820000120B0BD606A40F4002060626A
:100C80000120B0BD00206062B0BD000070470000D0
:100C90007047000070470000704700007047000078
:100CA000704700007047000070B5866D044600F084
:100CB000EBFA94F83510022925D105462068216CFD
:100CC000026822F016020260426922F0800242614C
:100CD00009B9A16C19B1016821F00801016001682E
:100CE00021F00101016000BF20680068C0070ED03C
:100CF00000F0CAFA401B0628F6D3202060650320C6
:100D000084F835000CE080206065012008E0E06D8B
:100D10003F2101FA00F0B060012084F83500002086
:100D2000002184F8341070BD90F83510022909D1E3
:100D3000052180F835100068016821F0010101608B
:100D4000002070478021416501207047F0B581B0D7
:100D500004460020009040F20000C2F20000026849
:100D6000D4E9166048F2B51337680821C1F64E334E
:100D700081403942A2FB03250CD0226813685B072F
:100D800008D5136823F004031360B160616D41F06E
:100D90000101616501218140394208D02268526910
:100DA000120604D5B160616D41F002016165042154
:100DB0008140394208D022681268920704D5B16098
:100DC000616D41F00401616510218140394215D007
:100DD00020680268120711D5B160026801685203E9
:100DE00006D4C90506D4016821F00801016001E0BC
:100DF000080340D4216C09B120468847E16D2020CA
:100E000000FA01F23A4242D020680368DB063ED580
:100E1000B26094F835300268052B1CD122F016021E
:100E20000260426922F080024261226C0AB9A26C1F
:100E30001AB1026822F0080202603F208840B060C8
:100E4000012084F83500216D0020002984F8340049
:100E50003DD101B0F0BD0168520310D4C90512D4D0
:100E6000016821F010010160012084F835000020A4
:100E700084F8340007E0A16C0029BDD1BEE7080367
:100E800001D4616C00E0E16B09B120468847606DD8
:100E90000028DED0606DC00716D0052084F835002C
:100EA0002068A90A026822F001020260009A013259
:100EB0008A42009202D80268D207F7D1012084F852
:100EC0003500002084F83400E16C0029C1D02046B0
:100ED000884701B0F0BD00002DE9F041044600F064
:100EE000D3F9C4B10546022084F8350000202168FA
:100EF00084F83400086820F0010008602068016868
:100F0000C9070BD000F0C0F9401B0528F6D9032112
:100F1000202203207BE00120BDE8F081016848F237
:100F20003F02CFF21002D4E9013501EA020ED4E902
:100F3000032143EA0E032B43D4E9056C1A43114302
:100F4000D4E90778314341EA0C02616A3A43042943
:100F500042EA080304D1D4E90B271A4342EA070303
:100F600003604269042922F0070241EA02012DD1FF
:100F7000D4E90A5341EA050143B3BCF5005F08D048
:100F8000BCF1000F12D1022D16D0012D07D09DB15A
:100F900019E0032D17D8DFE805F00B0F0B02A3F1C2
:100FA000C072B2FA82F252094AB90FE0032D02D29E
:100FB000012222B90AE006D1C3F3006232B1012155
:100FC0004022012023E00022002AF8D16FF00F0216
:100FD0004AF6AB2352FA80F2CAF6AA23A2FB0337E1
:100FE00043F2AE3341613909C0F60003595C40F267
:100FF000FF3398435F2A4FF03F0288BF0430C4E9B3
:10100000160102FA01F181600022012100206265CF
:1010100084F83510BDE8F08170B590F834C0BCF1AB
:10102000010F45D04FF0010C80F834C0D0F858E0E3
:1010300090F835C0BCF1010F37D14FF0020C80F8A9
:1010400035C04FF0000CC0F854C0D0F800C0846820
:10105000056CC06DDCF80060402C26F48026CCF8CE
:101060000060CCF804300B4604BF13460A463F210B
:1010700001FA00F0CCF80830CCF80C20CEF80800CB
:10108000DCF8000040F01600CCF800002DB1DCF8D0
:10109000000040F00800CCF80000DCF8000040F050
:1010A0000100CCF80000002070BD002180F8341051
:1010B000022070BDB0B5044600F0E6F8054640F2E7
:1010C0001600C2F200000078611C18BF044400BF83
:1010D00000F0DAF8401BA042FAD3B0BD2DE9F04F82
:1010E00082B000F13E4241F6004502F1FF77C4F2C2
:1010F000020508224FEAB726A84208BF0722072E9A
:1011000038BF4FEAB7224FF0010A002400274FF002
:101110000009009209E000BF09F101090437B9F1A3
:10112000100F04F1020400F0A6800A680AFA09FC14
:1011300012EA0C08F0D0D1F804B00BF0030AAAF1BF
:101140000102012A12D882680323CE6803FA04FE42
:1011500022EA0E02A640324382604268CBF30016B8
:1011600022EA0C0206FA09F632434260BAF1030F92
:101170001DD0C26803238D6803FA04F6B24305FA52
:1011800004F63243BAF1020FC26010D16FF00302CD
:1011900002EA59020244D2F820C007F01C050F23CE
:1011A0000E69AB402CEA0303AE403343136202687E
:1011B00003234E68A3409A4306F00303A3401A4357
:1011C00016F4403F4FF0010A0260A5D0002243F61A
:1011D00044030192C4F202031A6843F6004E42F43B
:1011E00080421A601A68C4F2010E02F48042019231
:1011F000019A29F003024FF6084C7244CFF6FF7CA7
:1012000052F80C3007F00C060F25B540AB43009D9B
:1012100005FA06F6334342F80C30DEF808204B6836
:1012200042EA080643F60C4CDD0258BF22EA0806E3
:10123000CEF80860C4F2010CDCF800209D0242EAFE
:10124000080658BF22EA0806CCF80060DEF8042041
:101250009D0342EA080658BF22EA0806CEF8046059
:10126000DEF80020DB0342EA080658BF22EA08063F
:10127000CEF8006050E702B0BDE8F08F002A08BF4A
:10128000090481617047000040F2DC20C2F20000D6
:101290000068704740F2160040F2DC21C2F2000004
:1012A000C2F2000100780A6810440860704700002C
:1012B00080B543F60040C4F20200016841F40071B9
:1012C0000160016841F480610160016841F480714E
:1012D0000160032000F088F80F2000F005F800F00E
:1012E0002BF8002080BD0000B0B540F21602C2F21B
:1012F000000240F200011278C2F200014FF47A734A
:101300000968B3FBF2F20446B1FBF2F1084600F0C3
:101310002BFB0F2C4FF001050CD858B94FF0FF30C4
:1013200021460022002500F033F840F21800C2F2F6
:10133000000004602846B0BD82B0002043F64001A2
:101340000190C4F202014A6842F480424A604A684D
:1013500002F480420192019A0090086840F08050A7
:101360000860086800F080500090009802B0704754
:10137000002848BF704700F01F01012202FA01F166
:101380004EF200124009CEF2000242F820107047DF
:1013900010B54EF60C5CCEF2000CDCF80030C3F356
:1013A000022E8EF00704042C28BF0424BEF1030390
:1013B0004FF0FF3E0EFA04F438BF0023A1439940DA
:1013C0000EFA03F39A4300F00F03043B1143634406
:1013D00009010C3300F16042B0F1FF3FC8BF02F5D4
:1013E0006443197010BD00004EF60C51CEF200019E
:1013F0000A684FF6FF031A4060F30A2242F0806049
:1014000040F0FD70086070472DE9F041002800F0C1
:101410008B8043F60808C4F202080446D8F8F803A3
:101420000D4600F00700884207D288F8F853D8F834
:10143000F80300F00700A84276D12068810717D58D
:10144000410705D5D8F8001041F4E051C8F8001064
:10145000010705D5D8F8001041F46041C8F8001024
:10146000D8F80010A26821F0F0011143C8F800106C
:10147000C0073FD1D8F8F80300F00700A84207D909
:1014800088F8F853D8F8F80300F00700A8424BD1C9
:101490002068410707D5D8F80010E26821F4E05130
:1014A0001143C8F80010000708D5D8F800002169DA
:1014B00020F4604040EAC100C8F8000000F07CF869
:1014C000D8F8001043F29632C1F30311C0F60002BF
:1014D000515C40F2000220FA01F140F21800C2F221
:1014E00000000068C2F200021160FFF7FDFE00205C
:1014F000BDE8F0816068811E022907D258F8081CF7
:1015000089015CBF0120BDE8F08110E0012807D10E
:1015100058F8081C89035CBF0120BDE8F08106E093
:1015200058F8081C890702D40120BDE8F081D8F8DA
:10153000001021F003010843C8F80000FFF7A4FEE3
:10154000064641F2883700BFD8F80000616800F015
:101550000C00B0EB810F8DD0FFF796FE801BB842D8
:10156000F2D90320BDE8F08140F2000043F6080103
:10157000C2F20000C4F202010068096843F2A63218
:10158000C1F38221C0F60002515CC84070470000E0
:1015900040F2000043F60801C2F20000C4F202016A
:1015A0000068096843F2A632C1F34231C0F6000276
:1015B000515CC8407047000010B543F60404C4F203
:1015C0000204606800F00C0008280AD0042819BF43
:1015D00042F20040C0F2F40047F64000C0F27D1035
:1015E00010BD206821682368490247F64001C0F217
:1015F0007D1100F03F02C3F388105CBF42F200414E
:10160000C0F2F401A1FB00010023FEF72DFE2168CA
:101610000222C1F3014102EB4101B0FBF1F010BD28
:101620002DE9F04182B0002800F0A2800446007845
:1016300043F60006C007C4F2020643D0B06800F0CB
:101640000C00042805D1306880033BD56068C8BB16
:101650008EE0B06800F00C00082802D170684002EB
:10166000F1D46568B5F5A02F0AD0B5F5803F0BD051
:10167000306820F480303060306820F4802006E04C
:10168000306840F480203060306840F48030306052
:10169000FFF7FAFD002D054611D000BF306880032A
:1016A00010D4FFF7F1FD401B6428F7D922E100BFF9
:1016B000FFF7EAFD401B64284FF0030055D830685F
:1016C0008003F5D4207880071AD5B06810F00C0F8D
:1016D00009D0B06800F00C00082840F08A807068DB
:1016E000400200F186803068800702D5E06801285A
:1016F0003ED13068216920F0F80040EAC100306036
:101700002078000738D4207840074CD4A5695DB311
:10171000B06800F00C00082840F09E80012D27D012
:101720007068E16900F480028A4221D1216A00F0E8
:101730003F028A421CD147F6C071626A0140B1EB98
:10174000821F15D1A26A0023CFF6FF7303EBC232CA
:1017500000F440316FF30F02914209D1E16A00F0C9
:101760007060B0EB016F03D1002002B0BDE8F081E2
:10177000012002B0BDE8F0816069002840F200005D
:10178000C4F2472057D00121C0F8801EFFF77CFD2E
:10179000054600BF706F8007B5D4FFF775FD401B8D
:1017A0000228F7D9A6E0306C10F080580AD100204A
:1017B0000190306C40F080503064306C00F080500C
:1017C0000190019847F20007C4F200073868C0058D
:1017D00024D4386840F480703860FFF755FD054622
:1017E0003868C0051AD4FFF74FFD401B0228F7D90F
:1017F00080E0E068002851D00020C4F24720012199
:101800000160FFF741FD0546306880073FF571AF85
:10181000FFF73AFD401B0228F6D96BE0A568052DBD
:1018200050D0012D52D0306F20F001003067306F62
:1018300020F004004DE00021C0F8801EFFF724FDD9
:10184000054600BF706F80077FF55DAFFFF71CFD99
:10185000401B0228F6D94DE00027C4F2472700209C
:101860003866FFF711FD022D05460BD13068800167
:1018700058D5FFF709FD401B02284FF00300F5D9AA
:1018800073E700BF306880017FF56EAFFFF7FCFCA7
:10189000401B02284FF00300F4D966E70020C4F291
:1018A000472000210160FFF7EFFC05463068800704
:1018B0007FF526AFFFF7E8FC401B02284FF003003E
:1018C000F4D952E7306F40F004003067306F40F0D9
:1018D00001003067FFF7D8FC002D054641F288373C
:1018E00014D000BF306F800713D4FFF7CDFC401B2E
:1018F000B842F7D9032002B0BDE8F081FFF7C4FC7D
:10190000401BB8424FF003003FF62FAF306F800707
:10191000F4D4B8F1000F7FF4F9AE306C20F08050B1
:101920003064F3E604F11C052FCD08430021CFF607
:10193000FF7140EA821001EBC3316FF30F0140EAFF
:1019400005600843706001203866FFF79DFC04467F
:10195000306880013FF508AFFFF796FC001B0228B6
:101960004FF00300F4D900E7411E0020B0EB116FE7
:101970001CBF012070474EF21002CEF200025160EF
:101980004EF62351CEF20001F0230B700721906038
:1019900011607047704700007047000010B590F864
:1019A0003C20012A4FF0020252D0012380F83C3043
:1019B00080F83D200268D2F804E0D2F808C00C6834
:1019C0002EF07003234341F2FF74C4F20004A242DC
:1019D00053600DDC40F2FF73C4F200039A4215DC41
:1019E000B2F1804F29D040F20043C4F2000322E05C
:1019F00040F2FF33C4F201039A4212DC41F60003C5
:101A0000C4F200039A4218D0002312E040F600030B
:101A1000C4F200039A4210D040F60043C4F200031F
:101A200009E044F20003C4F201039A4205D040F2F7
:101A30000043C4F201039A4204D149682CF08003A8
:101A4000194391600121002280F83D1080F83C206C
:101A5000104610BD002804BF0120704710B5044691
:101A600090F83D0028B9002084F83C00204600F0A2
:101A70001FF8022084F83D002068211D01F028F99C
:101A8000012084F8460084F83E0084F83F0084F882
:101A9000400084F8410084F8420084F8430084F850
:101AA000440084F8450084F83D00002010BD00008B
:101AB00010B582B0006840F20041C4F200018842D3
:101AC00013D0B0F1804F28D10020019043F64000A0
:101AD000C4F2020001681C2441F0010101600068A9
:101AE00000F00100019001980FE00020009043F603
:101AF0004000C4F2020001681D2441F002010160AF
:101B0000006800F0020000900098204605210022A5
:101B1000FFF73EFC2046FFF72BFC02B010BD000093
:101B200090F83D1001291CBF01207047022180F868
:101B30003D10006841F2FF72C168C4F20002904299
:101B400041F00101C1600DDC40F2FF71C4F20001FF
:101B5000884215DCB0F1804F29D040F20041C4F238
:101B6000000122E040F2FF31C4F20101884212DCA0
:101B700041F60001C4F20001884218D0002112E0B1
:101B800040F60001C4F20001884210D040F6004146
:101B9000C4F2000109E044F20001C4F201018842EC
:101BA00005D040F20041C4F20101884206D18168AB
:101BB00001F00701062904BF00207047016841F0C9
:101BC000010101600020704780B590F83C20012A97
:101BD0004FF0020200F0C280012380F83C3080F810
:101BE0003D20D0F800C04FF67772DCF8083023EAC9
:101BF0000202CCF808200B684F2B28DC1F2B43DD9A
:101C0000202B44D0302B42D0402B40F0A980D1F87B
:101C100004E0C968DCF82030DCF8202022F0010262
:101C2000CCF82020DCF8182022F0F00242EA011162
:101C300023F00A0242EA0E02CCF81810CCF8202059
:101C4000DCF8081041F0470121F030017DE06F2BF6
:101C500025DDB3F5005F46D0B3F5805F77D0702BFC
:101C60007ED1D1E901E3C968DCF8082043EA0E031C
:101C700022F47F4243EA01211143CCF80810DCF83A
:101C8000081041F0770160E00BB1102B68D1DCF84F
:101C9000081021F07001194341F0070155E0502B65
:101CA00034D0602B5CD1D1F804E0C968DCF8203076
:101CB000DCF8202022F01002CCF82020DCF81820DC
:101CC00022F4704242EA013123F0A00242EA0E12ED
:101CD000CCF81810CCF82020DCF8081041F067018F
:101CE00021F0100131E0D1E901E3C968DCF80820F6
:101CF00043EA0E0322F47F4243EA01211143CCF868
:101D00000810DCF8081041F480411EE0D1F804E02E
:101D1000C968DCF82030DCF8202022F00102CCF881
:101D20002020DCF8182022F0F00242EA011123F012
:101D30000A0242EA0E02CCF81810CCF82020DCF897
:101D4000081041F0570121F02001CCF808100022C2
:101D5000012180F83D10002180F83C10104680BD24
:101D60000122F5E77047000070B504460068C568B9
:101D70000669B10716D515F0020113D06FF0020104
:101D80000161012121778069800703D02046FFF798
:101D9000E9FF05E0204600F08BF8204600F0C6F988
:101DA00000202077700718D515F0040015D02068A2
:101DB0006FF00401016102212177806910F4407FF6
:101DC00003D02046FFF7CEFF05E0204600F070F874
:101DD000204600F0ABF900202077300717D515F02A
:101DE000080014D020686FF00801016104212177F8
:101DF000C069800703D02046FFF7B4FF05E0204606
:101E000000F056F8204600F091F900202077F00607
:101E100018D515F0100015D020686FF01001016181
:101E200008212177C06910F4407F03D02046FFF7D6
:101E300099FF05E0204600F03BF8204600F076F9D7
:101E400000202077F00718BF15F0010002D13006FE
:101E500009D412E020686FF001010161204600F012
:101E6000FFF9300609D515F0800006D020686FF024
:101E7000800101612046FFF78DFD700609D515F040
:101E8000400006D020686FF040010161204600F05C
:101E900005FAB0060AD515F0200008BF70BD20680D
:101EA0006FF0200101612046FFF776FD70BD000054
:101EB000704700002DE9F04190F83C30012B04BF41
:101EC0000220BDE8F0814FEAB2020123032A80F824
:101ED0003C3000F2F480DFE802F0023E7DBC036893
:101EE00040F200471C6A1A6A24F0020422F0010240
:101EF0001A621A46D3F804E052F818CF8E6843F4F9
:101F00008065C4F20107BD4244EA060405D1CE68EB
:101F100024F00C0426F0040634430E68BD4207D1B9
:101F2000D1E905572EF4407E45EA0E0545EA070E35
:101F30002CF073073743C3F804E09F614F680969C9
:101F40005F631C629F6947F008079F619F6927F0E4
:101F500004079F61AFE0036840F200481C6A1A6AF8
:101F600024F0200422F010021A621A46D3F804E08A
:101F700052F818CF8F6843F48065C4F201084545D4
:101F800044EA071407D1CF686FF0400624F0C0047C
:101F900006EA071634430F68454507D1D1E90556CF
:101FA0002EF4406E4EEA850545EA860E2CF4E64690
:101FB00046EA0727C3F804E09F614F6809699F63F9
:101FC0001C629F6947F400679F619F6927F48067DF
:101FD0009F616FE0036840F200481C6A1A6A24F4AB
:101FE000007422F480721A621A46D3F804E052F8A0
:101FF0001CCF8F6843F48065C4F20108454544EA6C
:10200000072408D1CF6840F2FF463F0224F4406421
:1020100027EA060634430F68454507D1D1E905563E
:102020002EF4405E4EEA051545EA061E2CF07306B6
:102030003743C3F804E0DF614F680969DF631C625E
:10204000DF6947F00807DF61DF6927F00407DF6118
:1020500031E0036840F20045D3F820C01A6A43F427
:10206000806722F480521A621A465C6852F81CEFAC
:10207000D1F800808E68C4F20105AF4204D14D69E9
:1020800024F4804444EA85142CF4005747EA0637C8
:102090002EF4E64646EA08265C60DE614E68096971
:1020A0001E641F62DF6947F40067DF61DF6927F4A0
:1020B0008067DF6109021368194300231160002162
:1020C00080F83C101846BDE8F0810000002804BFED
:1020D0000120704710B5044690F83D0028B9002053
:1020E00084F83C00204600F01FF8022084F83D00F0
:1020F0002068211D00F0ECFD012084F8460084F8E2
:102100003E0084F83F0084F8400084F8410084F8E1
:10211000420084F8430084F8440084F8450084F8C1
:102120003D00002010BD0000704700007047000017
:1021300041B1082909D0042914BF00F1410200F17E
:102140003F0204E000F13E0201E000F1400212789B
:10215000012A1CBF01207047022241B1082909D081
:10216000042914BF80F8412080F83F2004E080F863
:102170003E2001E080F84020006801F01F010122AC
:10218000036A02FA01F123EA01020262026A0A43C7
:1021900041F2FF71C4F20001884202620FDC40F29A
:1021A000FF71C4F20001884217DCB0F1804F49D0C2
:1021B00040F20041C4F20001884243D049E040F2BD
:1021C000FF32C4F20102904214DC41F60003C4F273
:1021D0000003984236D0002314E040F60001C4F218
:1021E000000188422ED040F60041C4F2000188422E
:1021F00028D02EE044F20003C4F20103984221D01B
:1022000040F20043C4F20103984222D1436C884259
:1022100043F400434364C2DD904207DC41F6000111
:10222000C4F2000188420DD0002107E044F2000111
:10223000C4F20101884205D040F20041C4F201011C
:10224000884206D1816801F00701062904BF0020F9
:102250007047016841F001010160002070470000F3
:10226000B0B50446006840F27425B0F1804FC2F268
:10227000000504D12878012801D100F0DBFF206897
:1022800040F20041C4F20001884206D128780228B9
:1022900018BFB0BD204600F0A9FFB0BD70470000D8
:1022A00070B582B0044690F84200202822D100295F
:1022B0004FF0010518BF002A1DD001250026204639
:1022C0002563666300F01CFF216B012913D1019681
:1022D00021680A680192496801910199216851E8D1
:1022E000031F226841F0100142E80313002BF5D1CF
:1022F000054600E00225284602B070BD80B50068A2
:1023000041F20002C4F20102904219D140F276205B
:10231000C2F200000278FF2A12D189B140F2A40C67
:102320000022C2F2000C4FF0010E00BFD3B2C35C1A
:102330000132012BD3B208BF8CF800E08B42F5D3F9
:1023400040F2202040F27621C2F20000C2F20001E9
:102350006422FFF7A5FF80BD70470000B0B582B0D2
:10236000044600680168C368426901F02F05202D0A
:1023700003F0200505D125B1204600F0EDFD02B0A7
:10238000B0BD5FEA017C1EBF02F0010E03F4907243
:1023900012EB0E0279D1226B012A05D111F0100245
:1023A00018BF13F0100235D10A0622D513F08002AF
:1023B0001FD094F8411021292AD1A168B1F5805F7E
:1023C00003D12169002900F04881216A4A1C226258
:1023D00009784160E18C01390A04E18418D1C168AF
:1023E00021F08001C160C16841F04001C16002B0CC
:1023F000B0BD49060CD513F0400109D0C16821F0E9
:102400004001C160202084F84100204600F0F4F92A
:1024100002B0B0BD002101910168019141680191B4
:1024200001994069400638D4A08DE18DE28D002AE3
:102430001CBF401A5FEA0041EAD000BF216851E8A2
:10244000031F226821F4907142E80313002BF5D199
:10245000216851E8051F226821F0010142E80513B7
:10246000002BF5D1202184F842100021216300BF08
:10247000216851E8031F226821F0100142E803138C
:10248000002BF5D1022161634CE0C80718BF13F49B
:10249000807059D148075DD463E0E06B01684968FA
:1024A0008AB2002A40D0A38D9A423DD2E185C0690C
:1024B000B0F5807F31D000BF206850E8030F21685D
:1024C00020F4807041E80302002AF5D1206850E82A
:1024D000050F216820F0010041E80502002AF5D12E
:1024E000206850E8050F216820F0400041E805020F
:1024F000002AF5D1202084F842000020206300BF8C
:10250000206850E8030F216820F0100041E8030222
:10251000002AF5D1E06BFEF7C7FB02206063A08DB7
:10252000E18D401A81B20AE0A18D91427FF470AF33
:10253000C069B0F5807F7FF46BAF022060632046F6
:10254000FFF7DCFE02B0B0BD606C40F001006064DB
:10255000480706D5BEF1000F03D0606C40F00200C2
:102560006064880706D5BEF1000F03D0606C40F0B0
:1025700004006064BCF1000F06D555EA0E0003D0DC
:10258000606C40F008006064606C00283FF440AF6D
:1025900011F0200018BF002D02D0204600F0DCFC16
:1025A00020684069616C00F0400001F008014018AB
:1025B00047D000BF206850E8030F216820F49070D6
:1025C00041E80302002AF5D1206850E8050F216890
:1025D00020F0010041E80502002AF5D1206B012816
:1025E0000AD100BF206850E8030F216820F01000D6
:1025F00041E80302002AF5D1202084F8420000209F
:10260000206320684069400622D500BF206850E85A
:10261000050F216820F0400041E80502002AF5D1AD
:10262000E06BA8B142F6FD51C0F600010165FEF76E
:102630007BFB00283FF4ECAEE06B016D884702B0F5
:10264000B0BD2046FFF788FE0020606402B0B0BD38
:102650002046FFF781FE02B0B0BD216A31F8022B9F
:102660006FF35F2242602162B4E60000002804BFDD
:102670000120704710B5044690F8410028B90020A9
:1026800084F84000204600F021F8242084F841001E
:102690002068C16821F40051C160204600F0C0FCF0
:1026A0002068016921F490410161416921F02A010A
:1026B0004161C16841F40051C16000202021606483
:1026C00084F8411084F84210606310BD2DE9F04F8A
:1026D00087B000250446C4F202050068A5F57041E4
:1026E00000278842CDE90577CDE90377029702D02C
:1026F00007B0BDE8F08F43F630000197C4F2020046
:10270000416902AE41F01001416141694FF0020A96
:1027100001F0100101910199019701684FF0030B3D
:1027200041F00101016000684FF0070800F001006E
:10273000019001984FF40070029028463146CDE98F
:1027400003A7CDF814B0CDF81880FEF7C7FC012020
:102750004FF48069CDE9040BCDF8188046F240486B
:1027600028463146CDE9029AC4F20208FEF7B6FCCB
:1027700040F2D005C2F200054FF000662846C5E9D8
:102780000086C5E90277C5E90497C5E90677C5E97A
:102790000877FEF7A1FB002818BFFDF781FEE5636F
:1027A000AC6340F2301508F17800C2F20005402118
:1027B000C5E9000605F10800002280E80602284667
:1027C000C5E90522C5E907226A62FEF785FB0028F4
:1027D00018BFFDF765FE252000210022A563AC632C
:1027E000FEF7D6FD2520FEF7C3FD07B0BDE8F08F4C
:1027F0007047000070470000006841F20001C4F219
:102800000101884218BF704740F2DA20C2F200008E
:102810000021017070470000FEE7000070B58AB02B
:1028200040F2A80046F2004140F20014C2F200005B
:10283000C4F2000100254FF400234FF44016C0F20B
:102840000114032280E82600C0E90353C0E90564AF
:102850008583FEF7BDF8002818BFFDF721FE44F27E
:102860002000009044F24000029044F26000019089
:102870004FF48140039040F2A80001240E26C2F2DA
:102880000000694608940996CDE90645CDE904554E
:10289000FDF768FE002818BFFDF702FE0020049037
:1028A0004FF4016000904FF48170029040F60C00EC
:1028B000019041F20C00039040F2A800C2F2000027
:1028C00069460996CDE90744CDE90544FDF74AFE7E
:1028D000002818BFFDF7E4FD40F2A800C2F2000096
:1028E000FEF7A6F9002818BFFDF7DAFD40F2A800B0
:1028F000C2F200000221FDF7D7FD002818BFFDF746
:10290000CFFD40F2A800C2F200001021FDF7CCFD7F
:10291000002818BFFDF7C4FD0AB070BD80B582B0B5
:102920000020019043F63000C4F20200016800224A
:1029300041F4800101600068002100F480000190F2
:1029400001983A20FEF724FD3A20FEF711FD4620BB
:1029500000210022FEF71CFD4620FEF709FD02B013
:1029600080BD00002DE9F04186B0002643F630001E
:102970000596CDE90366CDE901660096C4F2020032
:102980000168002441F0800101600168C4F2020482
:1029900001F080010091009900960168002241F049
:1029A0000101016000684FF4987100F0010000908F
:1029B00000982046FEF762FC082001904FF4881032
:1029C00001AD02904FF0020820462946CDF80C8058
:1029D000FEF784FB10200190012720462946CDE90F
:1029E00002780496FEF77AFB4FF49070CDE9010768
:1029F00020462946CDE90366FEF770FB06B0BDE828
:102A0000F081000080B586B040F290100021C2F243
:102A100000004FF08042532340F2E73CCDE904111F
:102A2000CDE90211CDE90011C0E90023C0E9021C83
:102A300001618161FFF70EF8002818BFFDF730FD36
:102A40004FF48050029040F29010C2F2000002A9B0
:102A5000FFF7BAF8002818BFFDF722FD0020CDE9E6
:102A6000000040F29010C2F200006946FEF796FFA7
:102A7000002818BFFDF714FD06B080BDB0B594B0B6
:102A800040F2004540F2D810C4F200050021C2F225
:102A90000000532240F2E7330D91CDE90B11CDE94F
:102AA0000911CDE90711CDE90511CDE90311CDE9F2
:102AB0000111C0E90052C0E9021301618161FEF712
:102AC000C9FF002818BFFDF7EBFC4FF480500A90B7
:102AD00040F2D810C2F200000AA9FFF775F80028EA
:102AE00018BFFDF7DDFC40F2D810C2F20000FFF77E
:102AF000EDFA002818BFFDF7D3FC40F2D8100024EF
:102B0000C2F2000008A9CDE90844FEF747FF0028FB
:102B100018BFFDF7C5FC6020CDE9010440F2D810D4
:102B2000C2F2000001A9002203940594FFF7C2F944
:102B3000002818BFFDF7B4FC40F2D814C2F200041C
:102B400001A920460422FFF7B5F9002818BFFDF7B8
:102B5000A7FC21680020A9421390CDE91100109034
:102B60000F9001D014B0B0BD43F630010E90C4F206
:102B700002010A6842F001020A60096801F00101DD
:102B80000E910E99C0210F910221CDE91010CDE9CF
:102B9000120105F5FE300FA9FEF7A0FA14B0B0BD82
:102BA00080B540F2202041F20001C2F20000C4F2E0
:102BB000010100234FF00C0C4FF4E13280E80E00CD
:102BC000C0E90333C0E905C3C361FFF74FFD002827
:102BD00018BFFDF765FC80BDFEE70000FEE70000C2
:102BE000704700007047000080B5FEF753FB80BDC2
:102BF00070B592B006AC20463021FDF7ADFB002544
:102C000043F640000595CDE90355CDE90155009502
:102C1000C4F202000168022641F0805101600068A0
:102C200000F080500090009847F200000095C4F238
:102C30000000016841F480410160006800F48040B8
:102C400000900098012006904FF4803007904FF4D8
:102C500080000D9019200E904FF4A870CDE90F065A
:102C60000420119020460C96FEF7DAFC08B172B6EB
:102C7000FEE70F20CDE901064FF4A05004904FF479
:102C80008050059001A805210395FEF7BDFB10B10A
:102C900072B600BFFEE712B070BD00004EF688505D
:102CA000CEF20000016841F470010160704700003D
:102CB00080B540F29010C2F20000FFF755F880BDD9
:102CC00080B540F2D810C2F20000FFF74DF880BD89
:102CD000B0B540F6FF3E0568C4F2000E40F2004C6D
:102CE0007045C4F2010C0FDCB0F1804F19D040F2F6
:102CF0000043C4F20003984213D040F60003C4F22C
:102D0000000398420DD011E040F60043C4F20003E6
:102D1000984206D0604504D00023C4F201039842D3
:102D200004D14B6825F0700243EA020541F6FF73B7
:102D3000C4F2000398420DDC70451FDCB0F1804FF7
:102D400041D040F20043C4F2000398423BD040F629
:102D5000000321E043F6FF73C4F20103984220DC34
:102D600042F20003C4F2000398422CD00023C4F2C4
:102D70000103984227D0604525D029E040F6004362
:102D8000C4F2000398421ED041F60003C4F20003CF
:102D9000984218D041F60043C4F20003984212D082
:102DA00016E044F20003C4F2010398420BD044F64B
:102DB0000003C4F20103984205D044F20043C4F278
:102DC0000103984204D1CB6825F4407243EA02051E
:102DD0000A688C684B69C46240F48064826264450E
:102DE00004BF09690163026825F0800142F0040212
:102DF00019430260012242610160B0BD80B5806B61
:102E00000021C185FFF7A8FA80BD000080B5806B66
:102E10000168496990F84120212A12D111F08001FE
:102E20000FD00021C18400BF016851E8031F026870
:102E300021F0C00142E80313002BF5D1202180F8D6
:102E400041100168496990F84220222A2BD111F0E3
:102E5000400128D00021C185016851E8031F0268A4
:102E600021F4907142E80313002BF5D1016851E879
:102E7000051F026821F0010142E80513002BF5D17E
:102E8000016B01290AD100BF016851E8031F0268E4
:102E900021F0100142E80313002BF5D1202180F826
:102EA000421000210163416C41F010014164FFF7C1
:102EB00053FA80BD80B50168806B0968C9052FD4BD
:102EC0000021C185016851E8031F026821F4807167
:102ED00042E80313002BF5D1016851E8051F026891
:102EE00021F0010142E80513002BF5D1016851E8FA
:102EF000051F026821F0400142E80513002BF5D1BF
:102F0000202180F84210016B012909D1016851E8A4
:102F1000031F026821F0100142E80313002BF5D1D2
:102F200000214163016B012903D1818DFFF7E6F98F
:102F300080BDFFF75DFC80BD80B5806B01214163E2
:102F4000016B012904D1818D4908FFF7D7F980BDB4
:102F5000FFF750FC80BD000080B582B090F84210B1
:102F600022291ED18268B2F5805F02D10169002951
:102F70004AD0816AB2F5805F07D00AB9026922B1EE
:102F80000268526802F07F0201E0026852680A702B
:102F90000121826A11448162C18D01390A04C1850F
:102FA00001D002B080BD0168CA6822F02002CA6068
:102FB000CA6822F48072CA604A6922F001024A613A
:102FC000202180F8421000214163026B012A23D1A5
:102FD000016300BF016851E8031F026821F010017E
:102FE00042E80313002BF5D101680A68D20606D522
:102FF000002201920A680192496801910199818D2C
:10300000FFF77CF902B080BD0168826A49686FF3FE
:103010005F2111800221BCE7FFF7EAFB02B080BD0F
:1030200010B504460068D4E902C22369016921F49D
:10303000405111430161626943EA0C01E3691143A4
:10304000C268194349F20C639A431143C160416954
:10305000A26921F4407141F20043114340F48062BF
:10306000C4F201039A42416102D1FEF791FA01E0F4
:10307000FEF77AFAE16963681922B1F5004FA0FB07
:1030800002011DD15A00DB0FFDF7EEF848F21F5187
:10309000C5F2EB11A0FB01235A096FF0630302FB99
:1030A0000300322303EBC000A0FB01014FF4F870D2
:1030B00000EA111000EB0210C1F3421108441BE0BA
:1030C0009A009B0FFDF7D0F848F21F51C5F2EB11A3
:1030D000A0FB01235A096FF0630302FB03003223B4
:1030E00003EB0010A0FB0101F02000EA511000EBFF
:1030F0000210C1F3431108442168886010BD00002C
:10310000F0B581B013460027044681628385476489
:10311000222084F84200E06B42F6B56542F639762B
:103120000A462168C0F60005C0F60006C0E90F5641
:1031300042F60D66C0F600060431C0E91367FDF7DC
:103140006BFF38B110206064202084F84200012019
:1031500001B0F0BD009720680168009140680090C0
:103160000098206950B100BF206850E8030F216823
:1031700040F4807041E80302002AF5D1206850E84D
:10318000050F216840F0010041E80502002AF5D151
:10319000206850E8050F216840F0400041E8050232
:1031A000002AF5D1002001B0F0BD000080B540F24A
:1031B0002020C2F20000FFF7D1F880BDFEE700003A
:1031C00010B50024C4F2020420464FF4807101229D
:1031D000FEF754F84FF4FA70FDF76CFF20464FF4F9
:1031E00080710022FEF74AF810BD000080B540F261
:1031F000702C40F26C2EC2F2000CC2F2000E9CF851
:103200000020DEF800300121002A18BF4FF0FF3106
:103210005A18D3087C2BCEF8002001D8012A05D1FA
:1032200000217C2B88BF01218CF8001000684263CC
:10323000826380BD70B540F27225C2F20005288815
:10324000B0F5FA7F28D940F21406C2F200063078B1
:1032500000240138C1B20329C4F202040AD843F29F
:10326000B63140B2C0F6000131F8101020460022FD
:10327000FEF704F8308800F00100013001283080AA
:1032800003D0022806D1202100E01021204601228F
:10329000FDF7F4FF0020288028880130288070BDC9
:1032A00040F20116C0F20126FEF702F8FFF7A0FC7B
:1032B000FFF758FBFFF732FBFFF7E0FBFFF770FC6F
:1032C000FFF7A0FBFFF7AAFA40F29010C2F200004D
:1032D000FEF726FC40F2D814C2F200042046FEF7A6
:1032E0001FFC20460021FEF723FF20460421FEF7A5
:1032F0001FFF40F2A805C2F200052846FDF798FC22
:1033000028460221FDF7D0F840F2682B40F20C0766
:1033100040F2A50440F2752840F2040AC2F2000B04
:10332000B14606F58076C2F20007C2F20004C2F28E
:103330000008C2F2000A04E0FFF742FF20780138DB
:1033400020709BF80000012808BFFFF773FF284694
:1033500031463A460323FDF775F820780028EBD173
:1033600098F800000128ECD1002088F800002846D9
:10337000494652460223FDF765F8E2E7F1EE100AEE
:103380004FF6FF71C0F2C03120EA010040F04070FA
:10339000E1EE100A7047000000000000000001028A
:1033A00003040607080900000000010203040006E8
:1033B00010160006101610002000400080000000CB
:1033C000E03300080000002020000000C4010008D5
:1033D0000034000820000020C0080000E0010008C0
:1033E0000024F4004F4B0000000000004F4B000091
:1033F00000000000010001001000000000000000BB
:040000050800018965
:00000001FF
